{
  "address": "0x486d6FC7f307E4152feAC88ceF5F033864f19733",
  "abi": [
    {
      "inputs": [
        {
          "internalType": "uint256",
          "name": "minDelay",
          "type": "uint256"
        }
      ],
      "stateMutability": "nonpayable",
      "type": "constructor"
    },
    {
      "inputs": [
        {
          "internalType": "bool",
          "name": "initialised",
          "type": "bool"
        },
        {
          "internalType": "address",
          "name": "governor",
          "type": "address"
        }
      ],
      "name": "FailToInitialiseTimelockController",
      "type": "error"
    },
    {
      "anonymous": false,
      "inputs": [
        {
          "indexed": true,
          "internalType": "bytes32",
          "name": "id",
          "type": "bytes32"
        },
        {
          "indexed": true,
          "internalType": "uint256",
          "name": "index",
          "type": "uint256"
        },
        {
          "indexed": false,
          "internalType": "address",
          "name": "target",
          "type": "address"
        },
        {
          "indexed": false,
          "internalType": "uint256",
          "name": "value",
          "type": "uint256"
        },
        {
          "indexed": false,
          "internalType": "bytes",
          "name": "data",
          "type": "bytes"
        }
      ],
      "name": "CallExecuted",
      "type": "event"
    },
    {
      "anonymous": false,
      "inputs": [
        {
          "indexed": true,
          "internalType": "bytes32",
          "name": "id",
          "type": "bytes32"
        },
        {
          "indexed": false,
          "internalType": "bytes32",
          "name": "salt",
          "type": "bytes32"
        }
      ],
      "name": "CallSalt",
      "type": "event"
    },
    {
      "anonymous": false,
      "inputs": [
        {
          "indexed": true,
          "internalType": "bytes32",
          "name": "id",
          "type": "bytes32"
        },
        {
          "indexed": true,
          "internalType": "uint256",
          "name": "index",
          "type": "uint256"
        },
        {
          "indexed": false,
          "internalType": "address",
          "name": "target",
          "type": "address"
        },
        {
          "indexed": false,
          "internalType": "uint256",
          "name": "value",
          "type": "uint256"
        },
        {
          "indexed": false,
          "internalType": "bytes",
          "name": "data",
          "type": "bytes"
        },
        {
          "indexed": false,
          "internalType": "bytes32",
          "name": "predecessor",
          "type": "bytes32"
        },
        {
          "indexed": false,
          "internalType": "uint256",
          "name": "delay",
          "type": "uint256"
        }
      ],
      "name": "CallScheduled",
      "type": "event"
    },
    {
      "anonymous": false,
      "inputs": [
        {
          "indexed": true,
          "internalType": "bytes32",
          "name": "id",
          "type": "bytes32"
        }
      ],
      "name": "Cancelled",
      "type": "event"
    },
    {
      "anonymous": false,
      "inputs": [
        {
          "indexed": false,
          "internalType": "uint256",
          "name": "oldDuration",
          "type": "uint256"
        },
        {
          "indexed": false,
          "internalType": "uint256",
          "name": "newDuration",
          "type": "uint256"
        }
      ],
      "name": "MinDelayChange",
      "type": "event"
    },
    {
      "anonymous": false,
      "inputs": [
        {
          "indexed": true,
          "internalType": "bytes32",
          "name": "role",
          "type": "bytes32"
        },
        {
          "indexed": true,
          "internalType": "bytes32",
          "name": "previousAdminRole",
          "type": "bytes32"
        },
        {
          "indexed": true,
          "internalType": "bytes32",
          "name": "newAdminRole",
          "type": "bytes32"
        }
      ],
      "name": "RoleAdminChanged",
      "type": "event"
    },
    {
      "anonymous": false,
      "inputs": [
        {
          "indexed": true,
          "internalType": "bytes32",
          "name": "role",
          "type": "bytes32"
        },
        {
          "indexed": true,
          "internalType": "address",
          "name": "account",
          "type": "address"
        },
        {
          "indexed": true,
          "internalType": "address",
          "name": "sender",
          "type": "address"
        }
      ],
      "name": "RoleGranted",
      "type": "event"
    },
    {
      "anonymous": false,
      "inputs": [
        {
          "indexed": true,
          "internalType": "bytes32",
          "name": "role",
          "type": "bytes32"
        },
        {
          "indexed": true,
          "internalType": "address",
          "name": "account",
          "type": "address"
        },
        {
          "indexed": true,
          "internalType": "address",
          "name": "sender",
          "type": "address"
        }
      ],
      "name": "RoleRevoked",
      "type": "event"
    },
    {
      "inputs": [],
      "name": "CANCELLER_ROLE",
      "outputs": [
        {
          "internalType": "bytes32",
          "name": "",
          "type": "bytes32"
        }
      ],
      "stateMutability": "view",
      "type": "function"
    },
    {
      "inputs": [],
      "name": "DEFAULT_ADMIN_ROLE",
      "outputs": [
        {
          "internalType": "bytes32",
          "name": "",
          "type": "bytes32"
        }
      ],
      "stateMutability": "view",
      "type": "function"
    },
    {
      "inputs": [],
      "name": "EXECUTOR_ROLE",
      "outputs": [
        {
          "internalType": "bytes32",
          "name": "",
          "type": "bytes32"
        }
      ],
      "stateMutability": "view",
      "type": "function"
    },
    {
      "inputs": [],
      "name": "PROPOSER_ROLE",
      "outputs": [
        {
          "internalType": "bytes32",
          "name": "",
          "type": "bytes32"
        }
      ],
      "stateMutability": "view",
      "type": "function"
    },
    {
      "inputs": [],
      "name": "TIMELOCK_ADMIN_ROLE",
      "outputs": [
        {
          "internalType": "bytes32",
          "name": "",
          "type": "bytes32"
        }
      ],
      "stateMutability": "view",
      "type": "function"
    },
    {
      "inputs": [
        {
          "internalType": "bytes32",
          "name": "id",
          "type": "bytes32"
        }
      ],
      "name": "cancel",
      "outputs": [],
      "stateMutability": "nonpayable",
      "type": "function"
    },
    {
      "inputs": [
        {
          "internalType": "address",
          "name": "target",
          "type": "address"
        },
        {
          "internalType": "uint256",
          "name": "value",
          "type": "uint256"
        },
        {
          "internalType": "bytes",
          "name": "payload",
          "type": "bytes"
        },
        {
          "internalType": "bytes32",
          "name": "predecessor",
          "type": "bytes32"
        },
        {
          "internalType": "bytes32",
          "name": "salt",
          "type": "bytes32"
        }
      ],
      "name": "execute",
      "outputs": [],
      "stateMutability": "payable",
      "type": "function"
    },
    {
      "inputs": [
        {
          "internalType": "address[]",
          "name": "targets",
          "type": "address[]"
        },
        {
          "internalType": "uint256[]",
          "name": "values",
          "type": "uint256[]"
        },
        {
          "internalType": "bytes[]",
          "name": "payloads",
          "type": "bytes[]"
        },
        {
          "internalType": "bytes32",
          "name": "predecessor",
          "type": "bytes32"
        },
        {
          "internalType": "bytes32",
          "name": "salt",
          "type": "bytes32"
        }
      ],
      "name": "executeBatch",
      "outputs": [],
      "stateMutability": "payable",
      "type": "function"
    },
    {
      "inputs": [],
      "name": "getMinDelay",
      "outputs": [
        {
          "internalType": "uint256",
          "name": "",
          "type": "uint256"
        }
      ],
      "stateMutability": "view",
      "type": "function"
    },
    {
      "inputs": [
        {
          "internalType": "bytes32",
          "name": "role",
          "type": "bytes32"
        }
      ],
      "name": "getRoleAdmin",
      "outputs": [
        {
          "internalType": "bytes32",
          "name": "",
          "type": "bytes32"
        }
      ],
      "stateMutability": "view",
      "type": "function"
    },
    {
      "inputs": [
        {
          "internalType": "bytes32",
          "name": "id",
          "type": "bytes32"
        }
      ],
      "name": "getTimestamp",
      "outputs": [
        {
          "internalType": "uint256",
          "name": "",
          "type": "uint256"
        }
      ],
      "stateMutability": "view",
      "type": "function"
    },
    {
      "inputs": [
        {
          "internalType": "bytes32",
          "name": "role",
          "type": "bytes32"
        },
        {
          "internalType": "address",
          "name": "account",
          "type": "address"
        }
      ],
      "name": "grantRole",
      "outputs": [],
      "stateMutability": "nonpayable",
      "type": "function"
    },
    {
      "inputs": [
        {
          "internalType": "bytes32",
          "name": "role",
          "type": "bytes32"
        },
        {
          "internalType": "address",
          "name": "account",
          "type": "address"
        }
      ],
      "name": "hasRole",
      "outputs": [
        {
          "internalType": "bool",
          "name": "",
          "type": "bool"
        }
      ],
      "stateMutability": "view",
      "type": "function"
    },
    {
      "inputs": [
        {
          "internalType": "address",
          "name": "target",
          "type": "address"
        },
        {
          "internalType": "uint256",
          "name": "value",
          "type": "uint256"
        },
        {
          "internalType": "bytes",
          "name": "data",
          "type": "bytes"
        },
        {
          "internalType": "bytes32",
          "name": "predecessor",
          "type": "bytes32"
        },
        {
          "internalType": "bytes32",
          "name": "salt",
          "type": "bytes32"
        }
      ],
      "name": "hashOperation",
      "outputs": [
        {
          "internalType": "bytes32",
          "name": "",
          "type": "bytes32"
        }
      ],
      "stateMutability": "pure",
      "type": "function"
    },
    {
      "inputs": [
        {
          "internalType": "address[]",
          "name": "targets",
          "type": "address[]"
        },
        {
          "internalType": "uint256[]",
          "name": "values",
          "type": "uint256[]"
        },
        {
          "internalType": "bytes[]",
          "name": "payloads",
          "type": "bytes[]"
        },
        {
          "internalType": "bytes32",
          "name": "predecessor",
          "type": "bytes32"
        },
        {
          "internalType": "bytes32",
          "name": "salt",
          "type": "bytes32"
        }
      ],
      "name": "hashOperationBatch",
      "outputs": [
        {
          "internalType": "bytes32",
          "name": "",
          "type": "bytes32"
        }
      ],
      "stateMutability": "pure",
      "type": "function"
    },
    {
      "inputs": [
        {
          "internalType": "address",
          "name": "_governor",
          "type": "address"
        }
      ],
      "name": "initialiseAndRevokeAdminRole",
      "outputs": [],
      "stateMutability": "nonpayable",
      "type": "function"
    },
    {
      "inputs": [
        {
          "internalType": "bytes32",
          "name": "id",
          "type": "bytes32"
        }
      ],
      "name": "isOperation",
      "outputs": [
        {
          "internalType": "bool",
          "name": "",
          "type": "bool"
        }
      ],
      "stateMutability": "view",
      "type": "function"
    },
    {
      "inputs": [
        {
          "internalType": "bytes32",
          "name": "id",
          "type": "bytes32"
        }
      ],
      "name": "isOperationDone",
      "outputs": [
        {
          "internalType": "bool",
          "name": "",
          "type": "bool"
        }
      ],
      "stateMutability": "view",
      "type": "function"
    },
    {
      "inputs": [
        {
          "internalType": "bytes32",
          "name": "id",
          "type": "bytes32"
        }
      ],
      "name": "isOperationPending",
      "outputs": [
        {
          "internalType": "bool",
          "name": "",
          "type": "bool"
        }
      ],
      "stateMutability": "view",
      "type": "function"
    },
    {
      "inputs": [
        {
          "internalType": "bytes32",
          "name": "id",
          "type": "bytes32"
        }
      ],
      "name": "isOperationReady",
      "outputs": [
        {
          "internalType": "bool",
          "name": "",
          "type": "bool"
        }
      ],
      "stateMutability": "view",
      "type": "function"
    },
    {
      "inputs": [
        {
          "internalType": "address",
          "name": "",
          "type": "address"
        },
        {
          "internalType": "address",
          "name": "",
          "type": "address"
        },
        {
          "internalType": "uint256[]",
          "name": "",
          "type": "uint256[]"
        },
        {
          "internalType": "uint256[]",
          "name": "",
          "type": "uint256[]"
        },
        {
          "internalType": "bytes",
          "name": "",
          "type": "bytes"
        }
      ],
      "name": "onERC1155BatchReceived",
      "outputs": [
        {
          "internalType": "bytes4",
          "name": "",
          "type": "bytes4"
        }
      ],
      "stateMutability": "nonpayable",
      "type": "function"
    },
    {
      "inputs": [
        {
          "internalType": "address",
          "name": "",
          "type": "address"
        },
        {
          "internalType": "address",
          "name": "",
          "type": "address"
        },
        {
          "internalType": "uint256",
          "name": "",
          "type": "uint256"
        },
        {
          "internalType": "uint256",
          "name": "",
          "type": "uint256"
        },
        {
          "internalType": "bytes",
          "name": "",
          "type": "bytes"
        }
      ],
      "name": "onERC1155Received",
      "outputs": [
        {
          "internalType": "bytes4",
          "name": "",
          "type": "bytes4"
        }
      ],
      "stateMutability": "nonpayable",
      "type": "function"
    },
    {
      "inputs": [
        {
          "internalType": "address",
          "name": "",
          "type": "address"
        },
        {
          "internalType": "address",
          "name": "",
          "type": "address"
        },
        {
          "internalType": "uint256",
          "name": "",
          "type": "uint256"
        },
        {
          "internalType": "bytes",
          "name": "",
          "type": "bytes"
        }
      ],
      "name": "onERC721Received",
      "outputs": [
        {
          "internalType": "bytes4",
          "name": "",
          "type": "bytes4"
        }
      ],
      "stateMutability": "nonpayable",
      "type": "function"
    },
    {
      "inputs": [
        {
          "internalType": "bytes32",
          "name": "role",
          "type": "bytes32"
        },
        {
          "internalType": "address",
          "name": "account",
          "type": "address"
        }
      ],
      "name": "renounceRole",
      "outputs": [],
      "stateMutability": "nonpayable",
      "type": "function"
    },
    {
      "inputs": [
        {
          "internalType": "bytes32",
          "name": "role",
          "type": "bytes32"
        },
        {
          "internalType": "address",
          "name": "account",
          "type": "address"
        }
      ],
      "name": "revokeRole",
      "outputs": [],
      "stateMutability": "nonpayable",
      "type": "function"
    },
    {
      "inputs": [
        {
          "internalType": "address",
          "name": "target",
          "type": "address"
        },
        {
          "internalType": "uint256",
          "name": "value",
          "type": "uint256"
        },
        {
          "internalType": "bytes",
          "name": "data",
          "type": "bytes"
        },
        {
          "internalType": "bytes32",
          "name": "predecessor",
          "type": "bytes32"
        },
        {
          "internalType": "bytes32",
          "name": "salt",
          "type": "bytes32"
        },
        {
          "internalType": "uint256",
          "name": "delay",
          "type": "uint256"
        }
      ],
      "name": "schedule",
      "outputs": [],
      "stateMutability": "nonpayable",
      "type": "function"
    },
    {
      "inputs": [
        {
          "internalType": "address[]",
          "name": "targets",
          "type": "address[]"
        },
        {
          "internalType": "uint256[]",
          "name": "values",
          "type": "uint256[]"
        },
        {
          "internalType": "bytes[]",
          "name": "payloads",
          "type": "bytes[]"
        },
        {
          "internalType": "bytes32",
          "name": "predecessor",
          "type": "bytes32"
        },
        {
          "internalType": "bytes32",
          "name": "salt",
          "type": "bytes32"
        },
        {
          "internalType": "uint256",
          "name": "delay",
          "type": "uint256"
        }
      ],
      "name": "scheduleBatch",
      "outputs": [],
      "stateMutability": "nonpayable",
      "type": "function"
    },
    {
      "inputs": [
        {
          "internalType": "bytes4",
          "name": "interfaceId",
          "type": "bytes4"
        }
      ],
      "name": "supportsInterface",
      "outputs": [
        {
          "internalType": "bool",
          "name": "",
          "type": "bool"
        }
      ],
      "stateMutability": "view",
      "type": "function"
    },
    {
      "inputs": [
        {
          "internalType": "uint256",
          "name": "newDelay",
          "type": "uint256"
        }
      ],
      "name": "updateDelay",
      "outputs": [],
      "stateMutability": "nonpayable",
      "type": "function"
    },
    {
      "stateMutability": "payable",
      "type": "receive"
    }
  ],
  "transactionHash": "0x8b3d4cb0550c8ebca39007dcb404a98d423eada730dabf855c99329cd58c051d",
  "args": [
    600
  ],
  "numDeployments": 1,
  "solcInputHash": "35950a224af665ba2b0bb7e23aa8e1c0",
  "bytecode": "0x60806040523480156200001157600080fd5b506040516200236b3803806200236b833981016040819052620000349162000342565b6040805160008082526020820190815281830190925282913362000068600080516020620022eb8339815191528062000247565b620000926000805160206200230b833981519152600080516020620022eb83398151915262000247565b620000bc6000805160206200232b833981519152600080516020620022eb83398151915262000247565b620000e66000805160206200234b833981519152600080516020620022eb83398151915262000247565b62000101600080516020620022eb8339815191523062000292565b6001600160a01b038116156200012c576200012c600080516020620022eb8339815191528262000292565b60005b8351811015620001b257620001766000805160206200230b8339815191528583815181106200016257620001626200035c565b60200260200101516200029260201b60201c565b6200019f6000805160206200234b8339815191528583815181106200016257620001626200035c565b620001aa8162000372565b90506200012f565b5060005b8251811015620001fc57620001e96000805160206200232b8339815191528483815181106200016257620001626200035c565b620001f48162000372565b9050620001b6565b5060028490556040805160008152602081018690527f11c24f4ead16507c69ac467fbd5e4eed5fb5c699626d2cc6d66421df253886d5910160405180910390a150505050506200039a565b600082815260208190526040808220600101805490849055905190918391839186917fbd79b86ffe0ab8e8776151514217cd7cacd52c909f66475c3af44e129f0b00ff9190a4505050565b6200029e8282620002a2565b5050565b6000828152602081815260408083206001600160a01b038516845290915290205460ff166200029e576000828152602081815260408083206001600160a01b03851684529091529020805460ff19166001179055620002fe3390565b6001600160a01b0316816001600160a01b0316837f2f8788117e7eff1d82e926ec794901d17c78024a50270940304540a733656f0d60405160405180910390a45050565b6000602082840312156200035557600080fd5b5051919050565b634e487b7160e01b600052603260045260246000fd5b6000600182016200039357634e487b7160e01b600052601160045260246000fd5b5060010190565b611f4180620003aa6000396000f3fe6080604052600436106101c65760003560e01c80638065657f116100f7578063bc197c8111610095578063e05f18db11610064578063e05f18db14610589578063e38335e5146105a9578063f23a6e61146105bc578063f27a0c92146105e857600080fd5b8063bc197c81146104f0578063c4d252f51461051c578063d45c44351461053c578063d547741f1461056957600080fd5b806391d14854116100d157806391d1485414610467578063a217fddf14610487578063b08e51c01461049c578063b1c5f427146104d057600080fd5b80638065657f146104055780638f2a0bb0146104255780638f61f4f51461044557600080fd5b8063248a9ca31161016457806331d507501161013e57806331d507501461038557806336568abe146103a5578063584b153e146103c557806364d62353146103e557600080fd5b8063248a9ca3146103045780632ab0f529146103345780632f2ff15d1461036557600080fd5b80630d3cf6fc116101a05780630d3cf6fc14610259578063134008d31461028d57806313bc9f20146102a0578063150b7a02146102c057600080fd5b806301d5062a146101d257806301ffc9a7146101f457806307bd02651461022957600080fd5b366101cd57005b600080fd5b3480156101de57600080fd5b506101f26101ed36600461151e565b6105fd565b005b34801561020057600080fd5b5061021461020f366004611592565b6106c1565b60405190151581526020015b60405180910390f35b34801561023557600080fd5b5061024b600080516020611eec83398151915281565b604051908152602001610220565b34801561026557600080fd5b5061024b7f5f58e3a2316349923ce3780f8d587db2d72378aed66a8261c916544fa6846ca581565b6101f261029b3660046115bc565b6106ec565b3480156102ac57600080fd5b506102146102bb366004611627565b61078f565b3480156102cc57600080fd5b506102eb6102db3660046116f5565b630a85bd0160e11b949350505050565b6040516001600160e01b03199091168152602001610220565b34801561031057600080fd5b5061024b61031f366004611627565b60009081526020819052604090206001015490565b34801561034057600080fd5b5061021461034f366004611627565b6000908152600160208190526040909120541490565b34801561037157600080fd5b506101f261038036600461175c565b6107b5565b34801561039157600080fd5b506102146103a0366004611627565b6107df565b3480156103b157600080fd5b506101f26103c036600461175c565b6107f8565b3480156103d157600080fd5b506102146103e0366004611627565b61087b565b3480156103f157600080fd5b506101f2610400366004611627565b610891565b34801561041157600080fd5b5061024b6104203660046115bc565b610935565b34801561043157600080fd5b506101f26104403660046117cc565b610974565b34801561045157600080fd5b5061024b600080516020611ecc83398151915281565b34801561047357600080fd5b5061021461048236600461175c565b610af5565b34801561049357600080fd5b5061024b600081565b3480156104a857600080fd5b5061024b7ffd643c72710c63c0180259aba6b2d05451e3591a24e58b62239378085726f78381565b3480156104dc57600080fd5b5061024b6104eb36600461187d565b610b1e565b3480156104fc57600080fd5b506102eb61050b3660046119a4565b63bc197c8160e01b95945050505050565b34801561052857600080fd5b506101f2610537366004611627565b610b63565b34801561054857600080fd5b5061024b610557366004611627565b60009081526001602052604090205490565b34801561057557600080fd5b506101f261058436600461175c565b610c38565b34801561059557600080fd5b506101f26105a4366004611a4d565b610c5d565b6101f26105b736600461187d565b610d70565b3480156105c857600080fd5b506102eb6105d7366004611a68565b63f23a6e6160e01b95945050505050565b3480156105f457600080fd5b5060025461024b565b600080516020611ecc83398151915261061581610ee8565b6000610625898989898989610935565b90506106318184610ef5565b6000817f4cf4410cc57040e44862ef0f45f3dd5a5e02db8eb8add648d4b0e236f1d07dca8b8b8b8b8b8a60405161066d96959493929190611af5565b60405180910390a383156106b657807f20fda5fd27a1ea7bf5b9567f143ac5470bb059374a27e8f67cb44f946f6d0387856040516106ad91815260200190565b60405180910390a25b505050505050505050565b60006001600160e01b03198216630271189760e51b14806106e657506106e682610fe4565b92915050565b600080516020611eec833981519152610706816000610af5565b610714576107148133611019565b6000610724888888888888610935565b90506107308185611072565b61073c8888888861110e565b6000817fc2617efa69bab66782fa219543714338489c4e9e178271560a91b82c3f612b588a8a8a8a6040516107749493929190611b32565b60405180910390a3610785816111e1565b5050505050505050565b6000818152600160205260408120546001811180156107ae5750428111155b9392505050565b6000828152602081905260409020600101546107d081610ee8565b6107da838361121a565b505050565b60008181526001602052604081205481905b1192915050565b6001600160a01b038116331461086d5760405162461bcd60e51b815260206004820152602f60248201527f416363657373436f6e74726f6c3a2063616e206f6e6c792072656e6f756e636560448201526e103937b632b9903337b91039b2b63360891b60648201526084015b60405180910390fd5b610877828261129e565b5050565b60008181526001602081905260408220546107f1565b3330146108f45760405162461bcd60e51b815260206004820152602b60248201527f54696d656c6f636b436f6e74726f6c6c65723a2063616c6c6572206d7573742060448201526a62652074696d656c6f636b60a81b6064820152608401610864565b60025460408051918252602082018390527f11c24f4ead16507c69ac467fbd5e4eed5fb5c699626d2cc6d66421df253886d5910160405180910390a1600255565b600086868686868660405160200161095296959493929190611af5565b6040516020818303038152906040528051906020012090509695505050505050565b600080516020611ecc83398151915261098c81610ee8565b8887146109ab5760405162461bcd60e51b815260040161086490611b64565b8885146109ca5760405162461bcd60e51b815260040161086490611b64565b60006109dc8b8b8b8b8b8b8b8b610b1e565b90506109e88184610ef5565b60005b8a811015610aa65780827f4cf4410cc57040e44862ef0f45f3dd5a5e02db8eb8add648d4b0e236f1d07dca8e8e85818110610a2857610a28611ba7565b9050602002016020810190610a3d9190611a4d565b8d8d86818110610a4f57610a4f611ba7565b905060200201358c8c87818110610a6857610a68611ba7565b9050602002810190610a7a9190611bbd565b8c8b604051610a8e96959493929190611af5565b60405180910390a3610a9f81611c19565b90506109eb565b508315610ae857807f20fda5fd27a1ea7bf5b9567f143ac5470bb059374a27e8f67cb44f946f6d038785604051610adf91815260200190565b60405180910390a25b5050505050505050505050565b6000918252602082815260408084206001600160a01b0393909316845291905290205460ff1690565b60008888888888888888604051602001610b3f989796959493929190611cc3565b60405160208183030381529060405280519060200120905098975050505050505050565b7ffd643c72710c63c0180259aba6b2d05451e3591a24e58b62239378085726f783610b8d81610ee8565b610b968261087b565b610bfc5760405162461bcd60e51b815260206004820152603160248201527f54696d656c6f636b436f6e74726f6c6c65723a206f7065726174696f6e2063616044820152701b9b9bdd0818994818d85b98d95b1b1959607a1b6064820152608401610864565b6000828152600160205260408082208290555183917fbaa1eb22f2a492ba1a5fea61b8df4d27c6c8b5f3971e63bb58fa14ff72eedb7091a25050565b600082815260208190526040902060010154610c5381610ee8565b6107da838361129e565b7f5f58e3a2316349923ce3780f8d587db2d72378aed66a8261c916544fa6846ca5610c8781610ee8565b60035460ff16158015610ca257506001600160a01b03821615155b15610d3d57610cc0600080516020611eec8339815191526000611303565b610cd8600080516020611ecc83398151915283611303565b610d027ffd643c72710c63c0180259aba6b2d05451e3591a24e58b62239378085726f78330611303565b610d2c7f5f58e3a2316349923ce3780f8d587db2d72378aed66a8261c916544fa6846ca53361129e565b6003805460ff191660011790555050565b60035460405163045b92b560e01b815260ff909116151560048201526001600160a01b0383166024820152604401610864565b600080516020611eec833981519152610d8a816000610af5565b610d9857610d988133611019565b878614610db75760405162461bcd60e51b815260040161086490611b64565b878414610dd65760405162461bcd60e51b815260040161086490611b64565b6000610de88a8a8a8a8a8a8a8a610b1e565b9050610df48185611072565b60005b89811015610ed25760008b8b83818110610e1357610e13611ba7565b9050602002016020810190610e289190611a4d565b905060008a8a84818110610e3e57610e3e611ba7565b9050602002013590503660008a8a86818110610e5c57610e5c611ba7565b9050602002810190610e6e9190611bbd565b91509150610e7e8484848461110e565b84867fc2617efa69bab66782fa219543714338489c4e9e178271560a91b82c3f612b5886868686604051610eb59493929190611b32565b60405180910390a35050505080610ecb90611c19565b9050610df7565b50610edc816111e1565b50505050505050505050565b610ef28133611019565b50565b610efe826107df565b15610f635760405162461bcd60e51b815260206004820152602f60248201527f54696d656c6f636b436f6e74726f6c6c65723a206f7065726174696f6e20616c60448201526e1c9958591e481cd8da19591d5b1959608a1b6064820152608401610864565b600254811015610fc45760405162461bcd60e51b815260206004820152602660248201527f54696d656c6f636b436f6e74726f6c6c65723a20696e73756666696369656e746044820152652064656c617960d01b6064820152608401610864565b610fce8142611d64565b6000928352600160205260409092209190915550565b60006001600160e01b03198216637965db0b60e01b14806106e657506301ffc9a760e01b6001600160e01b03198316146106e6565b6110238282610af5565b610877576110308161130d565b61103b83602061131f565b60405160200161104c929190611d9b565b60408051601f198184030181529082905262461bcd60e51b825261086491600401611e10565b61107b8261078f565b6110975760405162461bcd60e51b815260040161086490611e43565b8015806110b35750600081815260016020819052604090912054145b6108775760405162461bcd60e51b815260206004820152602660248201527f54696d656c6f636b436f6e74726f6c6c65723a206d697373696e6720646570656044820152656e64656e637960d01b6064820152608401610864565b6000846001600160a01b031684848460405161112b929190611e8d565b60006040518083038185875af1925050503d8060008114611168576040519150601f19603f3d011682016040523d82523d6000602084013e61116d565b606091505b50509050806111da5760405162461bcd60e51b815260206004820152603360248201527f54696d656c6f636b436f6e74726f6c6c65723a20756e6465726c79696e6720746044820152721c985b9cd858dd1a5bdb881c995d995c9d1959606a1b6064820152608401610864565b5050505050565b6111ea8161078f565b6112065760405162461bcd60e51b815260040161086490611e43565b600090815260016020819052604090912055565b6112248282610af5565b610877576000828152602081815260408083206001600160a01b03851684529091529020805460ff1916600117905561125a3390565b6001600160a01b0316816001600160a01b0316837f2f8788117e7eff1d82e926ec794901d17c78024a50270940304540a733656f0d60405160405180910390a45050565b6112a88282610af5565b15610877576000828152602081815260408083206001600160a01b0385168085529252808320805460ff1916905551339285917ff6391f5c32d9c69d2a47ea670b442974b53935d1edc7fd64eb21e047a839171b9190a45050565b610877828261121a565b60606106e66001600160a01b03831660145b6060600061132e836002611e9d565b611339906002611d64565b6001600160401b0381111561135057611350611640565b6040519080825280601f01601f19166020018201604052801561137a576020820181803683370190505b509050600360fc1b8160008151811061139557611395611ba7565b60200101906001600160f81b031916908160001a905350600f60fb1b816001815181106113c4576113c4611ba7565b60200101906001600160f81b031916908160001a90535060006113e8846002611e9d565b6113f3906001611d64565b90505b600181111561146b576f181899199a1a9b1b9c1cb0b131b232b360811b85600f166010811061142757611427611ba7565b1a60f81b82828151811061143d5761143d611ba7565b60200101906001600160f81b031916908160001a90535060049490941c9361146481611eb4565b90506113f6565b5083156107ae5760405162461bcd60e51b815260206004820181905260248201527f537472696e67733a20686578206c656e67746820696e73756666696369656e746044820152606401610864565b80356001600160a01b03811681146114d157600080fd5b919050565b60008083601f8401126114e857600080fd5b5081356001600160401b038111156114ff57600080fd5b60208301915083602082850101111561151757600080fd5b9250929050565b600080600080600080600060c0888a03121561153957600080fd5b611542886114ba565b96506020880135955060408801356001600160401b0381111561156457600080fd5b6115708a828b016114d6565b989b979a50986060810135976080820135975060a09091013595509350505050565b6000602082840312156115a457600080fd5b81356001600160e01b0319811681146107ae57600080fd5b60008060008060008060a087890312156115d557600080fd5b6115de876114ba565b95506020870135945060408701356001600160401b0381111561160057600080fd5b61160c89828a016114d6565b979a9699509760608101359660809091013595509350505050565b60006020828403121561163957600080fd5b5035919050565b634e487b7160e01b600052604160045260246000fd5b604051601f8201601f191681016001600160401b038111828210171561167e5761167e611640565b604052919050565b600082601f83011261169757600080fd5b81356001600160401b038111156116b0576116b0611640565b6116c3601f8201601f1916602001611656565b8181528460208386010111156116d857600080fd5b816020850160208301376000918101602001919091529392505050565b6000806000806080858703121561170b57600080fd5b611714856114ba565b9350611722602086016114ba565b92506040850135915060608501356001600160401b0381111561174457600080fd5b61175087828801611686565b91505092959194509250565b6000806040838503121561176f57600080fd5b8235915061177f602084016114ba565b90509250929050565b60008083601f84011261179a57600080fd5b5081356001600160401b038111156117b157600080fd5b6020830191508360208260051b850101111561151757600080fd5b600080600080600080600080600060c08a8c0312156117ea57600080fd5b89356001600160401b038082111561180157600080fd5b61180d8d838e01611788565b909b50995060208c013591508082111561182657600080fd5b6118328d838e01611788565b909950975060408c013591508082111561184b57600080fd5b506118588c828d01611788565b9a9d999c50979a969997986060880135976080810135975060a0013595509350505050565b60008060008060008060008060a0898b03121561189957600080fd5b88356001600160401b03808211156118b057600080fd5b6118bc8c838d01611788565b909a50985060208b01359150808211156118d557600080fd5b6118e18c838d01611788565b909850965060408b01359150808211156118fa57600080fd5b506119078b828c01611788565b999c989b509699959896976060870135966080013595509350505050565b600082601f83011261193657600080fd5b813560206001600160401b0382111561195157611951611640565b8160051b611960828201611656565b928352848101820192828101908785111561197a57600080fd5b83870192505b8483101561199957823582529183019190830190611980565b979650505050505050565b600080600080600060a086880312156119bc57600080fd5b6119c5866114ba565b94506119d3602087016114ba565b935060408601356001600160401b03808211156119ef57600080fd5b6119fb89838a01611925565b94506060880135915080821115611a1157600080fd5b611a1d89838a01611925565b93506080880135915080821115611a3357600080fd5b50611a4088828901611686565b9150509295509295909350565b600060208284031215611a5f57600080fd5b6107ae826114ba565b600080600080600060a08688031215611a8057600080fd5b611a89866114ba565b9450611a97602087016114ba565b9350604086013592506060860135915060808601356001600160401b03811115611ac057600080fd5b611a4088828901611686565b81835281816020850137506000828201602090810191909152601f909101601f19169091010190565b60018060a01b038716815285602082015260a060408201526000611b1d60a083018688611acc565b60608301949094525060800152949350505050565b60018060a01b0385168152836020820152606060408201526000611b5a606083018486611acc565b9695505050505050565b60208082526023908201527f54696d656c6f636b436f6e74726f6c6c65723a206c656e677468206d69736d616040820152620e8c6d60eb1b606082015260800190565b634e487b7160e01b600052603260045260246000fd5b6000808335601e19843603018112611bd457600080fd5b8301803591506001600160401b03821115611bee57600080fd5b60200191503681900382131561151757600080fd5b634e487b7160e01b600052601160045260246000fd5b600060018201611c2b57611c2b611c03565b5060010190565b81835260006020808501808196508560051b810191508460005b87811015611cb65782840389528135601e19883603018112611c6d57600080fd5b870185810190356001600160401b03811115611c8857600080fd5b803603821315611c9757600080fd5b611ca2868284611acc565b9a87019a9550505090840190600101611c4c565b5091979650505050505050565b60a0808252810188905260008960c08301825b8b811015611d04576001600160a01b03611cef846114ba565b16825260209283019290910190600101611cd6565b5083810360208501528881526001600160fb1b03891115611d2457600080fd5b8860051b9150818a60208301370182810360209081016040850152611d4c9082018789611c32565b60608401959095525050608001529695505050505050565b808201808211156106e6576106e6611c03565b60005b83811015611d92578181015183820152602001611d7a565b50506000910152565b7f416363657373436f6e74726f6c3a206163636f756e7420000000000000000000815260008351611dd3816017850160208801611d77565b7001034b99036b4b9b9b4b733903937b6329607d1b6017918401918201528351611e04816028840160208801611d77565b01602801949350505050565b6020815260008251806020840152611e2f816040850160208701611d77565b601f01601f19169190910160400192915050565b6020808252602a908201527f54696d656c6f636b436f6e74726f6c6c65723a206f7065726174696f6e206973604082015269206e6f7420726561647960b01b606082015260800190565b8183823760009101908152919050565b80820281158282048414176106e6576106e6611c03565b600081611ec357611ec3611c03565b50600019019056feb09aa5aeb3702cfd50b6b62bc4532604938f21248a27a1d5ca736082b6819cc1d8aa0f3194971a2a116679f7c2090f6939c8d4e01a2a8d7e41d55e5351469e63a2646970667358221220e56f0d23053a77bc4a626109badda538b55ac125d04b3e620deab1327405f7a564736f6c634300081300335f58e3a2316349923ce3780f8d587db2d72378aed66a8261c916544fa6846ca5b09aa5aeb3702cfd50b6b62bc4532604938f21248a27a1d5ca736082b6819cc1d8aa0f3194971a2a116679f7c2090f6939c8d4e01a2a8d7e41d55e5351469e63fd643c72710c63c0180259aba6b2d05451e3591a24e58b62239378085726f783",
  "devdoc": {
    "author": "ShamirLabs",
    "errors": {
      "FailToInitialiseTimelockController(bool,address)": [
        {
          "details": "Error: fail to initialise timelock controller either attempting to initialise twice or attempting to initialise with an invalid governor address."
        }
      ]
    },
    "events": {
      "CallExecuted(bytes32,uint256,address,uint256,bytes)": {
        "details": "Emitted when a call is performed as part of operation `id`."
      },
      "CallSalt(bytes32,bytes32)": {
        "details": "Emitted when new proposal is scheduled with non-zero salt."
      },
      "CallScheduled(bytes32,uint256,address,uint256,bytes,bytes32,uint256)": {
        "details": "Emitted when a call is scheduled as part of operation `id`."
      },
      "Cancelled(bytes32)": {
        "details": "Emitted when operation `id` is cancelled."
      },
      "MinDelayChange(uint256,uint256)": {
        "details": "Emitted when the minimum delay for future operations is modified."
      },
      "RoleAdminChanged(bytes32,bytes32,bytes32)": {
        "details": "Emitted when `newAdminRole` is set as ``role``'s admin role, replacing `previousAdminRole` `DEFAULT_ADMIN_ROLE` is the starting admin for all roles, despite {RoleAdminChanged} not being emitted signaling this. _Available since v3.1._"
      },
      "RoleGranted(bytes32,address,address)": {
        "details": "Emitted when `account` is granted `role`. `sender` is the account that originated the contract call, an admin role bearer except when using {AccessControl-_setupRole}."
      },
      "RoleRevoked(bytes32,address,address)": {
        "details": "Emitted when `account` is revoked `role`. `sender` is the account that originated the contract call:   - if using `revokeRole`, it is the admin role bearer   - if using `renounceRole`, it is the role bearer (i.e. `account`)"
      }
    },
    "kind": "dev",
    "methods": {
      "cancel(bytes32)": {
        "details": "Cancel an operation. Requirements: - the caller must have the 'canceller' role."
      },
      "execute(address,uint256,bytes,bytes32,bytes32)": {
        "details": "Execute an (ready) operation containing a single transaction. Emits a {CallExecuted} event. Requirements: - the caller must have the 'executor' role."
      },
      "executeBatch(address[],uint256[],bytes[],bytes32,bytes32)": {
        "details": "Execute an (ready) operation containing a batch of transactions. Emits one {CallExecuted} event per transaction in the batch. Requirements: - the caller must have the 'executor' role."
      },
      "getMinDelay()": {
        "details": "Returns the minimum delay for an operation to become valid. This value can be changed by executing an operation that calls `updateDelay`."
      },
      "getRoleAdmin(bytes32)": {
        "details": "Returns the admin role that controls `role`. See {grantRole} and {revokeRole}. To change a role's admin, use {_setRoleAdmin}."
      },
      "getTimestamp(bytes32)": {
        "details": "Returns the timestamp at which an operation becomes ready (0 for unset operations, 1 for done operations)."
      },
      "grantRole(bytes32,address)": {
        "details": "Grants `role` to `account`. If `account` had not been already granted `role`, emits a {RoleGranted} event. Requirements: - the caller must have ``role``'s admin role. May emit a {RoleGranted} event."
      },
      "hasRole(bytes32,address)": {
        "details": "Returns `true` if `account` has been granted `role`."
      },
      "hashOperation(address,uint256,bytes,bytes32,bytes32)": {
        "details": "Returns the identifier of an operation containing a single transaction."
      },
      "hashOperationBatch(address[],uint256[],bytes[],bytes32,bytes32)": {
        "details": "Returns the identifier of an operation containing a batch of transactions."
      },
      "isOperation(bytes32)": {
        "details": "Returns whether an id correspond to a registered operation. This includes both Pending, Ready and Done operations."
      },
      "isOperationDone(bytes32)": {
        "details": "Returns whether an operation is done or not."
      },
      "isOperationPending(bytes32)": {
        "details": "Returns whether an operation is pending or not. Note that a \"pending\" operation may also be \"ready\"."
      },
      "isOperationReady(bytes32)": {
        "details": "Returns whether an operation is ready for execution. Note that a \"ready\" operation is also \"pending\"."
      },
      "onERC1155BatchReceived(address,address,uint256[],uint256[],bytes)": {
        "details": "See {IERC1155Receiver-onERC1155BatchReceived}."
      },
      "onERC1155Received(address,address,uint256,uint256,bytes)": {
        "details": "See {IERC1155Receiver-onERC1155Received}."
      },
      "onERC721Received(address,address,uint256,bytes)": {
        "details": "See {IERC721Receiver-onERC721Received}."
      },
      "renounceRole(bytes32,address)": {
        "details": "Revokes `role` from the calling account. Roles are often managed via {grantRole} and {revokeRole}: this function's purpose is to provide a mechanism for accounts to lose their privileges if they are compromised (such as when a trusted device is misplaced). If the calling account had been revoked `role`, emits a {RoleRevoked} event. Requirements: - the caller must be `account`. May emit a {RoleRevoked} event."
      },
      "revokeRole(bytes32,address)": {
        "details": "Revokes `role` from `account`. If `account` had been granted `role`, emits a {RoleRevoked} event. Requirements: - the caller must have ``role``'s admin role. May emit a {RoleRevoked} event."
      },
      "schedule(address,uint256,bytes,bytes32,bytes32,uint256)": {
        "details": "Schedule an operation containing a single transaction. Emits {CallSalt} if salt is nonzero, and {CallScheduled}. Requirements: - the caller must have the 'proposer' role."
      },
      "scheduleBatch(address[],uint256[],bytes[],bytes32,bytes32,uint256)": {
        "details": "Schedule an operation containing a batch of transactions. Emits {CallSalt} if salt is nonzero, and one {CallScheduled} event per transaction in the batch. Requirements: - the caller must have the 'proposer' role."
      },
      "supportsInterface(bytes4)": {
        "details": "See {IERC165-supportsInterface}."
      },
      "updateDelay(uint256)": {
        "details": "Changes the minimum timelock duration for future operations. Emits a {MinDelayChange} event. Requirements: - the caller must be the timelock itself. This can only be achieved by scheduling and later executing an operation where the timelock is the target and the data is the ABI-encoded call to this function."
      }
    },
    "title": "DivaTimelockController Contract",
    "version": 1
  },
  "userdoc": {
    "kind": "user",
    "methods": {},
    "notice": "This contract is used to queue successful proposals.",
    "version": 1
  },
  "storageLayout": {
    "storage": [
      {
        "astId": 24,
        "contract": "contracts/DivaTimelockController.sol:DivaTimelockController",
        "label": "_roles",
        "offset": 0,
        "slot": "0",
        "type": "t_mapping(t_bytes32,t_struct(RoleData)19_storage)"
      },
      {
        "astId": 2294,
        "contract": "contracts/DivaTimelockController.sol:DivaTimelockController",
        "label": "_timestamps",
        "offset": 0,
        "slot": "1",
        "type": "t_mapping(t_bytes32,t_uint256)"
      },
      {
        "astId": 2296,
        "contract": "contracts/DivaTimelockController.sol:DivaTimelockController",
        "label": "_minDelay",
        "offset": 0,
        "slot": "2",
        "type": "t_uint256"
      },
      {
        "astId": 12861,
        "contract": "contracts/DivaTimelockController.sol:DivaTimelockController",
        "label": "_initialised",
        "offset": 0,
        "slot": "3",
        "type": "t_bool"
      }
    ],
    "types": {
      "t_address": {
        "encoding": "inplace",
        "label": "address",
        "numberOfBytes": "20"
      },
      "t_bool": {
        "encoding": "inplace",
        "label": "bool",
        "numberOfBytes": "1"
      },
      "t_bytes32": {
        "encoding": "inplace",
        "label": "bytes32",
        "numberOfBytes": "32"
      },
      "t_mapping(t_address,t_bool)": {
        "encoding": "mapping",
        "key": "t_address",
        "label": "mapping(address => bool)",
        "numberOfBytes": "32",
        "value": "t_bool"
      },
      "t_mapping(t_bytes32,t_struct(RoleData)19_storage)": {
        "encoding": "mapping",
        "key": "t_bytes32",
        "label": "mapping(bytes32 => struct AccessControl.RoleData)",
        "numberOfBytes": "32",
        "value": "t_struct(RoleData)19_storage"
      },
      "t_mapping(t_bytes32,t_uint256)": {
        "encoding": "mapping",
        "key": "t_bytes32",
        "label": "mapping(bytes32 => uint256)",
        "numberOfBytes": "32",
        "value": "t_uint256"
      },
      "t_struct(RoleData)19_storage": {
        "encoding": "inplace",
        "label": "struct AccessControl.RoleData",
        "members": [
          {
            "astId": 16,
            "contract": "contracts/DivaTimelockController.sol:DivaTimelockController",
            "label": "members",
            "offset": 0,
            "slot": "0",
            "type": "t_mapping(t_address,t_bool)"
          },
          {
            "astId": 18,
            "contract": "contracts/DivaTimelockController.sol:DivaTimelockController",
            "label": "adminRole",
            "offset": 0,
            "slot": "1",
            "type": "t_bytes32"
          }
        ],
        "numberOfBytes": "64"
      },
      "t_uint256": {
        "encoding": "inplace",
        "label": "uint256",
        "numberOfBytes": "32"
      }
    }
  }
}