{
  "address": "0xe17f746b9aeA7A482C73CD45Ff2a92f7aB1f5167",
  "abi": [
    {
      "inputs": [
        {
          "internalType": "contract IVotes",
          "name": "_token",
          "type": "address"
        },
        {
          "internalType": "contract DivaTimelockController",
          "name": "_timelock",
          "type": "address"
        },
        {
          "components": [
            {
              "internalType": "string",
              "name": "governorName",
              "type": "string"
            },
            {
              "internalType": "uint16",
              "name": "votingDelay",
              "type": "uint16"
            },
            {
              "internalType": "uint32",
              "name": "votingPeriod",
              "type": "uint32"
            },
            {
              "internalType": "uint256",
              "name": "quorumAbsolute",
              "type": "uint256"
            },
            {
              "internalType": "uint256",
              "name": "proposalThreshold",
              "type": "uint256"
            },
            {
              "internalType": "uint256",
              "name": "defaultDelay",
              "type": "uint256"
            },
            {
              "internalType": "uint256",
              "name": "shortDelay",
              "type": "uint256"
            },
            {
              "internalType": "uint256",
              "name": "longDelay",
              "type": "uint256"
            },
            {
              "internalType": "bytes4[]",
              "name": "functionSignatures",
              "type": "bytes4[]"
            },
            {
              "internalType": "enum GovernorTimelockControlConfigurable.DelayType[]",
              "name": "functionDelays",
              "type": "uint8[]"
            },
            {
              "internalType": "enum GovernorCountingThresholds.ThresholdType[]",
              "name": "functionThresholds",
              "type": "uint8[]"
            }
          ],
          "internalType": "struct DivaGovernor.GovernanceParameters",
          "name": "_settings",
          "type": "tuple"
        }
      ],
      "stateMutability": "nonpayable",
      "type": "constructor"
    },
    {
      "inputs": [],
      "name": "CancelProposalMustHaveShortDelay",
      "type": "error"
    },
    {
      "inputs": [],
      "name": "CancellationProposalCannotHaveValue",
      "type": "error"
    },
    {
      "inputs": [],
      "name": "DaoInvalidDelaysConfiguration",
      "type": "error"
    },
    {
      "inputs": [],
      "name": "DaoInvalidDelaysSetup",
      "type": "error"
    },
    {
      "inputs": [],
      "name": "DaoInvalidThresholdTypeConfiguration",
      "type": "error"
    },
    {
      "inputs": [],
      "name": "Empty",
      "type": "error"
    },
    {
      "inputs": [],
      "name": "InvalidDelayValue",
      "type": "error"
    },
    {
      "inputs": [],
      "name": "InvalidShortString",
      "type": "error"
    },
    {
      "inputs": [
        {
          "internalType": "string",
          "name": "str",
          "type": "string"
        }
      ],
      "name": "StringTooLong",
      "type": "error"
    },
    {
      "anonymous": false,
      "inputs": [],
      "name": "EIP712DomainChanged",
      "type": "event"
    },
    {
      "anonymous": false,
      "inputs": [
        {
          "indexed": false,
          "internalType": "uint256",
          "name": "proposalId",
          "type": "uint256"
        }
      ],
      "name": "ProposalCanceled",
      "type": "event"
    },
    {
      "anonymous": false,
      "inputs": [
        {
          "indexed": false,
          "internalType": "uint256",
          "name": "proposalId",
          "type": "uint256"
        },
        {
          "indexed": false,
          "internalType": "address",
          "name": "proposer",
          "type": "address"
        },
        {
          "indexed": false,
          "internalType": "address[]",
          "name": "targets",
          "type": "address[]"
        },
        {
          "indexed": false,
          "internalType": "uint256[]",
          "name": "values",
          "type": "uint256[]"
        },
        {
          "indexed": false,
          "internalType": "string[]",
          "name": "signatures",
          "type": "string[]"
        },
        {
          "indexed": false,
          "internalType": "bytes[]",
          "name": "calldatas",
          "type": "bytes[]"
        },
        {
          "indexed": false,
          "internalType": "uint256",
          "name": "voteStart",
          "type": "uint256"
        },
        {
          "indexed": false,
          "internalType": "uint256",
          "name": "voteEnd",
          "type": "uint256"
        },
        {
          "indexed": false,
          "internalType": "string",
          "name": "description",
          "type": "string"
        }
      ],
      "name": "ProposalCreated",
      "type": "event"
    },
    {
      "anonymous": false,
      "inputs": [
        {
          "indexed": false,
          "internalType": "uint256",
          "name": "proposalId",
          "type": "uint256"
        }
      ],
      "name": "ProposalExecuted",
      "type": "event"
    },
    {
      "anonymous": false,
      "inputs": [
        {
          "indexed": false,
          "internalType": "uint256",
          "name": "proposalId",
          "type": "uint256"
        },
        {
          "indexed": false,
          "internalType": "uint256",
          "name": "eta",
          "type": "uint256"
        }
      ],
      "name": "ProposalQueued",
      "type": "event"
    },
    {
      "anonymous": false,
      "inputs": [
        {
          "indexed": false,
          "internalType": "uint256",
          "name": "oldProposalThreshold",
          "type": "uint256"
        },
        {
          "indexed": false,
          "internalType": "uint256",
          "name": "newProposalThreshold",
          "type": "uint256"
        }
      ],
      "name": "ProposalThresholdSet",
      "type": "event"
    },
    {
      "anonymous": false,
      "inputs": [
        {
          "indexed": false,
          "internalType": "uint256",
          "name": "oldQuorumNumerator",
          "type": "uint256"
        },
        {
          "indexed": false,
          "internalType": "uint256",
          "name": "newQuorumNumerator",
          "type": "uint256"
        }
      ],
      "name": "QuorumNumeratorUpdated",
      "type": "event"
    },
    {
      "anonymous": false,
      "inputs": [
        {
          "indexed": false,
          "internalType": "uint256",
          "name": "proposalId",
          "type": "uint256"
        },
        {
          "indexed": false,
          "internalType": "enum GovernorCountingThresholds.ThresholdType",
          "name": "threshold",
          "type": "uint8"
        }
      ],
      "name": "SuccessThresholdTypeSet",
      "type": "event"
    },
    {
      "anonymous": false,
      "inputs": [
        {
          "indexed": false,
          "internalType": "address",
          "name": "oldTimelock",
          "type": "address"
        },
        {
          "indexed": false,
          "internalType": "address",
          "name": "newTimelock",
          "type": "address"
        }
      ],
      "name": "TimelockChange",
      "type": "event"
    },
    {
      "anonymous": false,
      "inputs": [
        {
          "indexed": true,
          "internalType": "address",
          "name": "voter",
          "type": "address"
        },
        {
          "indexed": false,
          "internalType": "uint256",
          "name": "proposalId",
          "type": "uint256"
        },
        {
          "indexed": false,
          "internalType": "uint8",
          "name": "support",
          "type": "uint8"
        },
        {
          "indexed": false,
          "internalType": "uint256",
          "name": "weight",
          "type": "uint256"
        },
        {
          "indexed": false,
          "internalType": "string",
          "name": "reason",
          "type": "string"
        }
      ],
      "name": "VoteCast",
      "type": "event"
    },
    {
      "anonymous": false,
      "inputs": [
        {
          "indexed": true,
          "internalType": "address",
          "name": "voter",
          "type": "address"
        },
        {
          "indexed": false,
          "internalType": "uint256",
          "name": "proposalId",
          "type": "uint256"
        },
        {
          "indexed": false,
          "internalType": "uint8",
          "name": "support",
          "type": "uint8"
        },
        {
          "indexed": false,
          "internalType": "uint256",
          "name": "weight",
          "type": "uint256"
        },
        {
          "indexed": false,
          "internalType": "string",
          "name": "reason",
          "type": "string"
        },
        {
          "indexed": false,
          "internalType": "bytes",
          "name": "params",
          "type": "bytes"
        }
      ],
      "name": "VoteCastWithParams",
      "type": "event"
    },
    {
      "anonymous": false,
      "inputs": [
        {
          "indexed": false,
          "internalType": "uint256",
          "name": "oldVotingDelay",
          "type": "uint256"
        },
        {
          "indexed": false,
          "internalType": "uint256",
          "name": "newVotingDelay",
          "type": "uint256"
        }
      ],
      "name": "VotingDelaySet",
      "type": "event"
    },
    {
      "anonymous": false,
      "inputs": [
        {
          "indexed": false,
          "internalType": "uint256",
          "name": "oldVotingPeriod",
          "type": "uint256"
        },
        {
          "indexed": false,
          "internalType": "uint256",
          "name": "newVotingPeriod",
          "type": "uint256"
        }
      ],
      "name": "VotingPeriodSet",
      "type": "event"
    },
    {
      "inputs": [],
      "name": "BALLOT_TYPEHASH",
      "outputs": [
        {
          "internalType": "bytes32",
          "name": "",
          "type": "bytes32"
        }
      ],
      "stateMutability": "view",
      "type": "function"
    },
    {
      "inputs": [],
      "name": "CANCEL_PROPOSAL_TYPEHASH",
      "outputs": [
        {
          "internalType": "bytes4",
          "name": "",
          "type": "bytes4"
        }
      ],
      "stateMutability": "view",
      "type": "function"
    },
    {
      "inputs": [],
      "name": "CLOCK_MODE",
      "outputs": [
        {
          "internalType": "string",
          "name": "",
          "type": "string"
        }
      ],
      "stateMutability": "view",
      "type": "function"
    },
    {
      "inputs": [],
      "name": "COUNTING_MODE",
      "outputs": [
        {
          "internalType": "string",
          "name": "",
          "type": "string"
        }
      ],
      "stateMutability": "pure",
      "type": "function"
    },
    {
      "inputs": [],
      "name": "EXTENDED_BALLOT_TYPEHASH",
      "outputs": [
        {
          "internalType": "bytes32",
          "name": "",
          "type": "bytes32"
        }
      ],
      "stateMutability": "view",
      "type": "function"
    },
    {
      "inputs": [
        {
          "internalType": "bytes4[]",
          "name": "signaturesLongDelay",
          "type": "bytes4[]"
        },
        {
          "internalType": "bytes4[]",
          "name": "signaturesShortDelay",
          "type": "bytes4[]"
        },
        {
          "internalType": "bytes4[]",
          "name": "signaturesDefaultDelay",
          "type": "bytes4[]"
        }
      ],
      "name": "addDelayConfiguration",
      "outputs": [],
      "stateMutability": "nonpayable",
      "type": "function"
    },
    {
      "inputs": [
        {
          "internalType": "bytes4[]",
          "name": "signaturesLargeThreshold",
          "type": "bytes4[]"
        },
        {
          "internalType": "bytes4[]",
          "name": "signaturesModerateThreshold",
          "type": "bytes4[]"
        },
        {
          "internalType": "bytes4[]",
          "name": "signaturesDefaultThreshold",
          "type": "bytes4[]"
        }
      ],
      "name": "addThresholdConfiguration",
      "outputs": [],
      "stateMutability": "nonpayable",
      "type": "function"
    },
    {
      "inputs": [
        {
          "internalType": "address[]",
          "name": "targets",
          "type": "address[]"
        },
        {
          "internalType": "uint256[]",
          "name": "values",
          "type": "uint256[]"
        },
        {
          "internalType": "bytes[]",
          "name": "calldatas",
          "type": "bytes[]"
        },
        {
          "internalType": "bytes32",
          "name": "descriptionHash",
          "type": "bytes32"
        }
      ],
      "name": "cancel",
      "outputs": [
        {
          "internalType": "uint256",
          "name": "",
          "type": "uint256"
        }
      ],
      "stateMutability": "nonpayable",
      "type": "function"
    },
    {
      "inputs": [
        {
          "internalType": "uint256",
          "name": "proposalId",
          "type": "uint256"
        },
        {
          "internalType": "uint8",
          "name": "support",
          "type": "uint8"
        }
      ],
      "name": "castVote",
      "outputs": [
        {
          "internalType": "uint256",
          "name": "",
          "type": "uint256"
        }
      ],
      "stateMutability": "nonpayable",
      "type": "function"
    },
    {
      "inputs": [
        {
          "internalType": "uint256",
          "name": "proposalId",
          "type": "uint256"
        },
        {
          "internalType": "uint8",
          "name": "support",
          "type": "uint8"
        },
        {
          "internalType": "uint8",
          "name": "v",
          "type": "uint8"
        },
        {
          "internalType": "bytes32",
          "name": "r",
          "type": "bytes32"
        },
        {
          "internalType": "bytes32",
          "name": "s",
          "type": "bytes32"
        }
      ],
      "name": "castVoteBySig",
      "outputs": [
        {
          "internalType": "uint256",
          "name": "",
          "type": "uint256"
        }
      ],
      "stateMutability": "nonpayable",
      "type": "function"
    },
    {
      "inputs": [
        {
          "internalType": "uint256",
          "name": "proposalId",
          "type": "uint256"
        },
        {
          "internalType": "uint8",
          "name": "support",
          "type": "uint8"
        },
        {
          "internalType": "string",
          "name": "reason",
          "type": "string"
        }
      ],
      "name": "castVoteWithReason",
      "outputs": [
        {
          "internalType": "uint256",
          "name": "",
          "type": "uint256"
        }
      ],
      "stateMutability": "nonpayable",
      "type": "function"
    },
    {
      "inputs": [
        {
          "internalType": "uint256",
          "name": "proposalId",
          "type": "uint256"
        },
        {
          "internalType": "uint8",
          "name": "support",
          "type": "uint8"
        },
        {
          "internalType": "string",
          "name": "reason",
          "type": "string"
        },
        {
          "internalType": "bytes",
          "name": "params",
          "type": "bytes"
        }
      ],
      "name": "castVoteWithReasonAndParams",
      "outputs": [
        {
          "internalType": "uint256",
          "name": "",
          "type": "uint256"
        }
      ],
      "stateMutability": "nonpayable",
      "type": "function"
    },
    {
      "inputs": [
        {
          "internalType": "uint256",
          "name": "proposalId",
          "type": "uint256"
        },
        {
          "internalType": "uint8",
          "name": "support",
          "type": "uint8"
        },
        {
          "internalType": "string",
          "name": "reason",
          "type": "string"
        },
        {
          "internalType": "bytes",
          "name": "params",
          "type": "bytes"
        },
        {
          "internalType": "uint8",
          "name": "v",
          "type": "uint8"
        },
        {
          "internalType": "bytes32",
          "name": "r",
          "type": "bytes32"
        },
        {
          "internalType": "bytes32",
          "name": "s",
          "type": "bytes32"
        }
      ],
      "name": "castVoteWithReasonAndParamsBySig",
      "outputs": [
        {
          "internalType": "uint256",
          "name": "",
          "type": "uint256"
        }
      ],
      "stateMutability": "nonpayable",
      "type": "function"
    },
    {
      "inputs": [],
      "name": "clock",
      "outputs": [
        {
          "internalType": "uint48",
          "name": "",
          "type": "uint48"
        }
      ],
      "stateMutability": "view",
      "type": "function"
    },
    {
      "inputs": [],
      "name": "eip712Domain",
      "outputs": [
        {
          "internalType": "bytes1",
          "name": "fields",
          "type": "bytes1"
        },
        {
          "internalType": "string",
          "name": "name",
          "type": "string"
        },
        {
          "internalType": "string",
          "name": "version",
          "type": "string"
        },
        {
          "internalType": "uint256",
          "name": "chainId",
          "type": "uint256"
        },
        {
          "internalType": "address",
          "name": "verifyingContract",
          "type": "address"
        },
        {
          "internalType": "bytes32",
          "name": "salt",
          "type": "bytes32"
        },
        {
          "internalType": "uint256[]",
          "name": "extensions",
          "type": "uint256[]"
        }
      ],
      "stateMutability": "view",
      "type": "function"
    },
    {
      "inputs": [
        {
          "internalType": "address[]",
          "name": "targets",
          "type": "address[]"
        },
        {
          "internalType": "uint256[]",
          "name": "values",
          "type": "uint256[]"
        },
        {
          "internalType": "bytes[]",
          "name": "calldatas",
          "type": "bytes[]"
        },
        {
          "internalType": "bytes32",
          "name": "descriptionHash",
          "type": "bytes32"
        }
      ],
      "name": "execute",
      "outputs": [
        {
          "internalType": "uint256",
          "name": "",
          "type": "uint256"
        }
      ],
      "stateMutability": "payable",
      "type": "function"
    },
    {
      "inputs": [
        {
          "internalType": "uint256",
          "name": "proposalId",
          "type": "uint256"
        }
      ],
      "name": "getSuccessThreshold",
      "outputs": [
        {
          "internalType": "enum GovernorCountingThresholds.ThresholdType",
          "name": "",
          "type": "uint8"
        }
      ],
      "stateMutability": "view",
      "type": "function"
    },
    {
      "inputs": [
        {
          "internalType": "address",
          "name": "account",
          "type": "address"
        },
        {
          "internalType": "uint256",
          "name": "timepoint",
          "type": "uint256"
        }
      ],
      "name": "getVotes",
      "outputs": [
        {
          "internalType": "uint256",
          "name": "",
          "type": "uint256"
        }
      ],
      "stateMutability": "view",
      "type": "function"
    },
    {
      "inputs": [
        {
          "internalType": "address",
          "name": "account",
          "type": "address"
        },
        {
          "internalType": "uint256",
          "name": "timepoint",
          "type": "uint256"
        },
        {
          "internalType": "bytes",
          "name": "params",
          "type": "bytes"
        }
      ],
      "name": "getVotesWithParams",
      "outputs": [
        {
          "internalType": "uint256",
          "name": "",
          "type": "uint256"
        }
      ],
      "stateMutability": "view",
      "type": "function"
    },
    {
      "inputs": [
        {
          "internalType": "uint256",
          "name": "proposalId",
          "type": "uint256"
        },
        {
          "internalType": "address",
          "name": "account",
          "type": "address"
        }
      ],
      "name": "hasVoted",
      "outputs": [
        {
          "internalType": "bool",
          "name": "",
          "type": "bool"
        }
      ],
      "stateMutability": "view",
      "type": "function"
    },
    {
      "inputs": [
        {
          "internalType": "address[]",
          "name": "targets",
          "type": "address[]"
        },
        {
          "internalType": "uint256[]",
          "name": "values",
          "type": "uint256[]"
        },
        {
          "internalType": "bytes[]",
          "name": "calldatas",
          "type": "bytes[]"
        },
        {
          "internalType": "bytes32",
          "name": "descriptionHash",
          "type": "bytes32"
        }
      ],
      "name": "hashProposal",
      "outputs": [
        {
          "internalType": "uint256",
          "name": "",
          "type": "uint256"
        }
      ],
      "stateMutability": "pure",
      "type": "function"
    },
    {
      "inputs": [],
      "name": "name",
      "outputs": [
        {
          "internalType": "string",
          "name": "",
          "type": "string"
        }
      ],
      "stateMutability": "view",
      "type": "function"
    },
    {
      "inputs": [
        {
          "internalType": "address",
          "name": "",
          "type": "address"
        },
        {
          "internalType": "address",
          "name": "",
          "type": "address"
        },
        {
          "internalType": "uint256[]",
          "name": "",
          "type": "uint256[]"
        },
        {
          "internalType": "uint256[]",
          "name": "",
          "type": "uint256[]"
        },
        {
          "internalType": "bytes",
          "name": "",
          "type": "bytes"
        }
      ],
      "name": "onERC1155BatchReceived",
      "outputs": [
        {
          "internalType": "bytes4",
          "name": "",
          "type": "bytes4"
        }
      ],
      "stateMutability": "nonpayable",
      "type": "function"
    },
    {
      "inputs": [
        {
          "internalType": "address",
          "name": "",
          "type": "address"
        },
        {
          "internalType": "address",
          "name": "",
          "type": "address"
        },
        {
          "internalType": "uint256",
          "name": "",
          "type": "uint256"
        },
        {
          "internalType": "uint256",
          "name": "",
          "type": "uint256"
        },
        {
          "internalType": "bytes",
          "name": "",
          "type": "bytes"
        }
      ],
      "name": "onERC1155Received",
      "outputs": [
        {
          "internalType": "bytes4",
          "name": "",
          "type": "bytes4"
        }
      ],
      "stateMutability": "nonpayable",
      "type": "function"
    },
    {
      "inputs": [
        {
          "internalType": "address",
          "name": "",
          "type": "address"
        },
        {
          "internalType": "address",
          "name": "",
          "type": "address"
        },
        {
          "internalType": "uint256",
          "name": "",
          "type": "uint256"
        },
        {
          "internalType": "bytes",
          "name": "",
          "type": "bytes"
        }
      ],
      "name": "onERC721Received",
      "outputs": [
        {
          "internalType": "bytes4",
          "name": "",
          "type": "bytes4"
        }
      ],
      "stateMutability": "nonpayable",
      "type": "function"
    },
    {
      "inputs": [
        {
          "internalType": "uint256",
          "name": "proposalId",
          "type": "uint256"
        }
      ],
      "name": "proposalDeadline",
      "outputs": [
        {
          "internalType": "uint256",
          "name": "",
          "type": "uint256"
        }
      ],
      "stateMutability": "view",
      "type": "function"
    },
    {
      "inputs": [
        {
          "internalType": "uint256",
          "name": "proposalId",
          "type": "uint256"
        }
      ],
      "name": "proposalEta",
      "outputs": [
        {
          "internalType": "uint256",
          "name": "",
          "type": "uint256"
        }
      ],
      "stateMutability": "view",
      "type": "function"
    },
    {
      "inputs": [
        {
          "internalType": "uint256",
          "name": "proposalId",
          "type": "uint256"
        }
      ],
      "name": "proposalProposer",
      "outputs": [
        {
          "internalType": "address",
          "name": "",
          "type": "address"
        }
      ],
      "stateMutability": "view",
      "type": "function"
    },
    {
      "inputs": [
        {
          "internalType": "uint256",
          "name": "proposalId",
          "type": "uint256"
        }
      ],
      "name": "proposalSnapshot",
      "outputs": [
        {
          "internalType": "uint256",
          "name": "",
          "type": "uint256"
        }
      ],
      "stateMutability": "view",
      "type": "function"
    },
    {
      "inputs": [],
      "name": "proposalThreshold",
      "outputs": [
        {
          "internalType": "uint256",
          "name": "",
          "type": "uint256"
        }
      ],
      "stateMutability": "view",
      "type": "function"
    },
    {
      "inputs": [
        {
          "internalType": "uint256",
          "name": "proposalId",
          "type": "uint256"
        }
      ],
      "name": "proposalVotes",
      "outputs": [
        {
          "internalType": "uint256",
          "name": "againstVotes",
          "type": "uint256"
        },
        {
          "internalType": "uint256",
          "name": "forVotes",
          "type": "uint256"
        },
        {
          "internalType": "uint256",
          "name": "abstainVotes",
          "type": "uint256"
        }
      ],
      "stateMutability": "view",
      "type": "function"
    },
    {
      "inputs": [
        {
          "internalType": "address[]",
          "name": "targets",
          "type": "address[]"
        },
        {
          "internalType": "uint256[]",
          "name": "values",
          "type": "uint256[]"
        },
        {
          "internalType": "bytes[]",
          "name": "calldatas",
          "type": "bytes[]"
        },
        {
          "internalType": "string",
          "name": "description",
          "type": "string"
        }
      ],
      "name": "propose",
      "outputs": [
        {
          "internalType": "uint256",
          "name": "",
          "type": "uint256"
        }
      ],
      "stateMutability": "nonpayable",
      "type": "function"
    },
    {
      "inputs": [
        {
          "internalType": "address[]",
          "name": "targets",
          "type": "address[]"
        },
        {
          "internalType": "uint256[]",
          "name": "values",
          "type": "uint256[]"
        },
        {
          "internalType": "bytes[]",
          "name": "calldatas",
          "type": "bytes[]"
        },
        {
          "internalType": "bytes32",
          "name": "descriptionHash",
          "type": "bytes32"
        }
      ],
      "name": "queue",
      "outputs": [
        {
          "internalType": "uint256",
          "name": "",
          "type": "uint256"
        }
      ],
      "stateMutability": "nonpayable",
      "type": "function"
    },
    {
      "inputs": [
        {
          "internalType": "uint256",
          "name": "timepoint",
          "type": "uint256"
        }
      ],
      "name": "quorum",
      "outputs": [
        {
          "internalType": "uint256",
          "name": "",
          "type": "uint256"
        }
      ],
      "stateMutability": "view",
      "type": "function"
    },
    {
      "inputs": [],
      "name": "quorumDenominator",
      "outputs": [
        {
          "internalType": "uint256",
          "name": "",
          "type": "uint256"
        }
      ],
      "stateMutability": "view",
      "type": "function"
    },
    {
      "inputs": [
        {
          "internalType": "uint256",
          "name": "timepoint",
          "type": "uint256"
        }
      ],
      "name": "quorumNumerator",
      "outputs": [
        {
          "internalType": "uint256",
          "name": "",
          "type": "uint256"
        }
      ],
      "stateMutability": "view",
      "type": "function"
    },
    {
      "inputs": [],
      "name": "quorumNumerator",
      "outputs": [
        {
          "internalType": "uint256",
          "name": "",
          "type": "uint256"
        }
      ],
      "stateMutability": "view",
      "type": "function"
    },
    {
      "inputs": [
        {
          "internalType": "address",
          "name": "target",
          "type": "address"
        },
        {
          "internalType": "uint256",
          "name": "value",
          "type": "uint256"
        },
        {
          "internalType": "bytes",
          "name": "data",
          "type": "bytes"
        }
      ],
      "name": "relay",
      "outputs": [],
      "stateMutability": "payable",
      "type": "function"
    },
    {
      "inputs": [
        {
          "internalType": "uint256",
          "name": "newProposalThreshold",
          "type": "uint256"
        }
      ],
      "name": "setProposalThreshold",
      "outputs": [],
      "stateMutability": "nonpayable",
      "type": "function"
    },
    {
      "inputs": [
        {
          "internalType": "uint256",
          "name": "newVotingDelay",
          "type": "uint256"
        }
      ],
      "name": "setVotingDelay",
      "outputs": [],
      "stateMutability": "nonpayable",
      "type": "function"
    },
    {
      "inputs": [
        {
          "internalType": "uint256",
          "name": "newVotingPeriod",
          "type": "uint256"
        }
      ],
      "name": "setVotingPeriod",
      "outputs": [],
      "stateMutability": "nonpayable",
      "type": "function"
    },
    {
      "inputs": [
        {
          "internalType": "uint256",
          "name": "proposalId",
          "type": "uint256"
        }
      ],
      "name": "state",
      "outputs": [
        {
          "internalType": "enum IGovernor.ProposalState",
          "name": "",
          "type": "uint8"
        }
      ],
      "stateMutability": "view",
      "type": "function"
    },
    {
      "inputs": [
        {
          "internalType": "bytes4",
          "name": "interfaceId",
          "type": "bytes4"
        }
      ],
      "name": "supportsInterface",
      "outputs": [
        {
          "internalType": "bool",
          "name": "",
          "type": "bool"
        }
      ],
      "stateMutability": "view",
      "type": "function"
    },
    {
      "inputs": [],
      "name": "timelock",
      "outputs": [
        {
          "internalType": "address",
          "name": "",
          "type": "address"
        }
      ],
      "stateMutability": "view",
      "type": "function"
    },
    {
      "inputs": [],
      "name": "token",
      "outputs": [
        {
          "internalType": "contract IERC5805",
          "name": "",
          "type": "address"
        }
      ],
      "stateMutability": "view",
      "type": "function"
    },
    {
      "inputs": [
        {
          "internalType": "uint256",
          "name": "newDelay",
          "type": "uint256"
        }
      ],
      "name": "updateDefaultDelay",
      "outputs": [],
      "stateMutability": "nonpayable",
      "type": "function"
    },
    {
      "inputs": [
        {
          "internalType": "uint256",
          "name": "newDelay",
          "type": "uint256"
        }
      ],
      "name": "updateLongDelay",
      "outputs": [],
      "stateMutability": "nonpayable",
      "type": "function"
    },
    {
      "inputs": [
        {
          "internalType": "uint256",
          "name": "newQuorumNumerator",
          "type": "uint256"
        }
      ],
      "name": "updateQuorumNumerator",
      "outputs": [],
      "stateMutability": "nonpayable",
      "type": "function"
    },
    {
      "inputs": [
        {
          "internalType": "uint256",
          "name": "newDelay",
          "type": "uint256"
        }
      ],
      "name": "updateShortDelay",
      "outputs": [],
      "stateMutability": "nonpayable",
      "type": "function"
    },
    {
      "inputs": [
        {
          "internalType": "contract DivaTimelockController",
          "name": "newTimelock",
          "type": "address"
        }
      ],
      "name": "updateTimelock",
      "outputs": [],
      "stateMutability": "nonpayable",
      "type": "function"
    },
    {
      "inputs": [],
      "name": "version",
      "outputs": [
        {
          "internalType": "string",
          "name": "",
          "type": "string"
        }
      ],
      "stateMutability": "view",
      "type": "function"
    },
    {
      "inputs": [
        {
          "internalType": "uint256",
          "name": "proposalId",
          "type": "uint256"
        }
      ],
      "name": "voteSucceeded",
      "outputs": [
        {
          "internalType": "bool",
          "name": "",
          "type": "bool"
        }
      ],
      "stateMutability": "view",
      "type": "function"
    },
    {
      "inputs": [],
      "name": "votingDelay",
      "outputs": [
        {
          "internalType": "uint256",
          "name": "",
          "type": "uint256"
        }
      ],
      "stateMutability": "view",
      "type": "function"
    },
    {
      "inputs": [],
      "name": "votingPeriod",
      "outputs": [
        {
          "internalType": "uint256",
          "name": "",
          "type": "uint256"
        }
      ],
      "stateMutability": "view",
      "type": "function"
    },
    {
      "stateMutability": "payable",
      "type": "receive"
    }
  ],
  "transactionHash": "0x4fca9b0aedad39ee5c3ba8e29b5e00eb7603b7e1503e62b377e808eb6a396a3c",
  "args": [
    "0x71129fCD8A244F14eBcF8041E860f2f21C71D6e2",
    "0x486d6FC7f307E4152feAC88ceF5F033864f19733",
    {
      "votingDelay": 14400,
      "governorName": "Diva Governor",
      "votingPeriod": 21600,
      "quorumAbsolute": "1",
      "proposalThreshold": "1000000000000000000000000",
      "defaultDelay": 43200,
      "shortDelay": 600,
      "longDelay": 72000,
      "functionSignatures": [
        "0x70b0f660",
        "0xea0217cf",
        "0xece40cc1",
        "0xae123020",
        "0xb868995f",
        "0x50e5efd8",
        "0xd38f834c",
        "0xa890c910",
        "0x06f3f9e6",
        "0xb9360fd8",
        "0x3f4ba83a",
        "0xa9059cbb",
        "0x095ea7b3",
        "0x23b872dd",
        "0x39509351",
        "0xa457c2d7",
        "0xc4d252f5"
      ],
      "functionDelays": [
        "2",
        "2",
        "2",
        "0",
        "2",
        "2",
        "2",
        "2",
        "2",
        "0",
        "0",
        "0",
        "0",
        "0",
        "0",
        "0",
        "1"
      ],
      "functionThresholds": [
        "2",
        "2",
        "1",
        "2",
        "2",
        "1",
        "2",
        "2",
        "2",
        "2",
        "0",
        "2",
        "2",
        "2",
        "2",
        "2",
        "2"
      ]
    }
  ],
  "numDeployments": 1,
  "solcInputHash": "35950a224af665ba2b0bb7e23aa8e1c0",
  "bytecode": "0x6101806040523480156200001257600080fd5b506040516200649238038062006492833981016040819052620000359162000e04565b806101000151816101400151838361010001518461012001518560a001518660c001518760e0015188606001518b8a6020015161ffff168b6040015163ffffffff168c608001518d6000015180620000926200037360201b60201c565b6200009f8260006200038e565b61012052620000b08160016200038e565b61014052815160208084019190912060e052815190820120610100524660a0526200013e60e05161010051604080517f8b73c3c69bb8fe3d512ecc4cf759cc79239f7b179b0ffacaa9a75d522b39400f60208201529081019290925260608201524660808201523060a082015260009060c00160405160208183030381529060405280519060200120905090565b60805250503060c052600262000155828262001008565b5062000163905083620003c7565b6200016e8262000408565b6200017981620004af565b5050506001600160a01b0316610160526200019481620004f0565b508282101580620001a55750828111155b15620001c457604051632fcd0b2b60e11b815260040160405180910390fd5b600e839055600f82905560108190558351855114620001f6576040516335e1624560e01b815260040160405180910390fd5b60005b85518110156200029457848181518110620002185762000218620010d4565b6020026020010151600d6000888481518110620002395762000239620010d4565b6020908102919091018101516001600160e01b0319168252810191909152604001600020805460ff191660018360028111156200027a576200027a620010ea565b0217905550806200028b8162001116565b915050620001f9565b50620002a0866200066f565b5050505050508051825114620002c957604051630f6ce6bb60e21b815260040160405180910390fd5b60005b82518110156200036757818181518110620002eb57620002eb620010d4565b6020026020010151601260008584815181106200030c576200030c620010d4565b6020908102919091018101516001600160e01b0319168252810191909152604001600020805460ff191660018360028111156200034d576200034d620010ea565b0217905550806200035e8162001116565b915050620002cc565b505050505050620011cc565b6040805180820190915260018152603160f81b602082015290565b6000602083511015620003ae57620003a683620006d8565b9050620003c1565b81620003bb848262001008565b5060ff90505b92915050565b60065460408051918252602082018390527fc565b045403dc03c2eea82b81a0465edad9e2e7fc4d97e11421c209da93d7a93910160405180910390a1600655565b600081116200046e5760405162461bcd60e51b815260206004820152602760248201527f476f7665726e6f7253657474696e67733a20766f74696e6720706572696f6420604482015266746f6f206c6f7760c81b60648201526084015b60405180910390fd5b60075460408051918252602082018390527f7e3f7f0708a84de9203036abaa450dccc85ad5ff52f78c170f3edb55cf5e8828910160405180910390a1600755565b60085460408051918252602082018390527fccb45da8d5717e6c4544694297c4ba5cf151d455c9bb0ed4fc7a38411bc05461910160405180910390a1600855565b6064811115620005755760405162461bcd60e51b815260206004820152604360248201527f476f7665726e6f72566f74657351756f72756d4672616374696f6e3a2071756f60448201527f72756d4e756d657261746f72206f7665722071756f72756d44656e6f6d696e616064820152623a37b960e91b608482015260a40162000465565b6000620005816200071b565b90508015801590620005935750600a54155b15620005fb576040805180820190915260008152600a9060208101620005b9846200074a565b6001600160e01b0390811690915282546001810184556000938452602093849020835194909301519091166401000000000263ffffffff909316929092179101555b620006306200061b6200060d620007b9565b65ffffffffffff1662000830565b62000626846200074a565b600a919062000897565b505060408051828152602081018490527f0553476bf02ef2726e8ce5ced78d63e26e602e4a2257b1f559418e24b4633997910160405180910390a15050565b600b54604080516001600160a01b03928316815291831660208301527f08f74ea46ef7894f65eabfb5e6e695de773a000b47c529ab559178069b226401910160405180910390a1600b80546001600160a01b0319166001600160a01b0392909216919091179055565b600080829050601f8151111562000706578260405163305a27a960e01b815260040162000465919062001132565b8051620007138262001167565b179392505050565b600a5460009015620007415762000733600a620008b4565b6001600160e01b0316905090565b6009545b905090565b60006001600160e01b03821115620007b55760405162461bcd60e51b815260206004820152602760248201527f53616665436173743a2076616c756520646f65736e27742066697420696e20326044820152663234206269747360c81b606482015260840162000465565b5090565b6000610160516001600160a01b03166391ddadf46040518163ffffffff1660e01b8152600401602060405180830381865afa9250505080156200081b575060408051601f3d908101601f1916820190925262000818918101906200118c565b60015b6200082b57620007454362000902565b919050565b600063ffffffff821115620007b55760405162461bcd60e51b815260206004820152602660248201527f53616665436173743a2076616c756520646f65736e27742066697420696e203360448201526532206269747360d01b606482015260840162000465565b600080620008a78585856200096b565b915091505b935093915050565b80546000908015620008f857620008e083620008d2600184620011b6565b600091825260209091200190565b5464010000000090046001600160e01b0316620008fb565b60005b9392505050565b600065ffffffffffff821115620007b55760405162461bcd60e51b815260206004820152602660248201527f53616665436173743a2076616c756520646f65736e27742066697420696e203460448201526538206269747360d01b606482015260840162000465565b82546000908190801562000ac05760006200098d87620008d2600185620011b6565b60408051808201909152905463ffffffff8082168084526401000000009092046001600160e01b03166020840152919250908716101562000a115760405162461bcd60e51b815260206004820152601b60248201527f436865636b706f696e743a2064656372656173696e67206b6579730000000000604482015260640162000465565b805163ffffffff80881691160362000a5f578462000a3688620008d2600186620011b6565b80546001600160e01b03929092166401000000000263ffffffff90921691909117905562000aaf565b6040805180820190915263ffffffff80881682526001600160e01b0380881660208085019182528b54600181018d5560008d81529190912094519151909216640100000000029216919091179101555b602001519250839150620008ac9050565b50506040805180820190915263ffffffff80851682526001600160e01b0380851660208085019182528854600181018a5560008a815291822095519251909316640100000000029190931617920191909155905081620008ac565b6001600160a01b038116811462000b3157600080fd5b50565b634e487b7160e01b600052604160045260246000fd5b60405161016081016001600160401b038111828210171562000b705762000b7062000b34565b60405290565b604051601f8201601f191681016001600160401b038111828210171562000ba15762000ba162000b34565b604052919050565b60005b8381101562000bc657818101518382015260200162000bac565b50506000910152565b600082601f83011262000be157600080fd5b81516001600160401b0381111562000bfd5762000bfd62000b34565b62000c12601f8201601f191660200162000b76565b81815284602083860101111562000c2857600080fd5b62000c3b82602083016020870162000ba9565b949350505050565b805161ffff811681146200082b57600080fd5b805163ffffffff811681146200082b57600080fd5b60006001600160401b0382111562000c875762000c8762000b34565b5060051b60200190565b600082601f83011262000ca357600080fd5b8151602062000cbc62000cb68362000c6b565b62000b76565b82815260059290921b8401810191818101908684111562000cdc57600080fd5b8286015b8481101562000d115780516001600160e01b03198116811462000d035760008081fd5b835291830191830162000ce0565b509695505050505050565b6003811062000b3157600080fd5b600082601f83011262000d3c57600080fd5b8151602062000d4f62000cb68362000c6b565b82815260059290921b8401810191818101908684111562000d6f57600080fd5b8286015b8481101562000d1157805162000d898162000d1c565b835291830191830162000d73565b600082601f83011262000da957600080fd5b8151602062000dbc62000cb68362000c6b565b82815260059290921b8401810191818101908684111562000ddc57600080fd5b8286015b8481101562000d1157805162000df68162000d1c565b835291830191830162000de0565b60008060006060848603121562000e1a57600080fd5b835162000e278162000b1b565b602085015190935062000e3a8162000b1b565b60408501519092506001600160401b038082111562000e5857600080fd5b90850190610160828803121562000e6e57600080fd5b62000e7862000b4a565b82518281111562000e8857600080fd5b62000e968982860162000bcf565b82525062000ea76020840162000c43565b602082015262000eba6040840162000c56565b6040820152606083015160608201526080830151608082015260a083015160a082015260c083015160c082015260e083015160e0820152610100808401518381111562000f0657600080fd5b62000f148a82870162000c91565b828401525050610120808401518381111562000f2f57600080fd5b62000f3d8a82870162000d2a565b828401525050610140808401518381111562000f5857600080fd5b62000f668a82870162000d97565b8284015250508093505050509250925092565b600181811c9082168062000f8e57607f821691505b60208210810362000faf57634e487b7160e01b600052602260045260246000fd5b50919050565b601f8211156200100357600081815260208120601f850160051c8101602086101562000fde5750805b601f850160051c820191505b8181101562000fff5782815560010162000fea565b5050505b505050565b81516001600160401b0381111562001024576200102462000b34565b6200103c8162001035845462000f79565b8462000fb5565b602080601f8311600181146200107457600084156200105b5750858301515b600019600386901b1c1916600185901b17855562000fff565b600085815260208120601f198616915b82811015620010a55788860151825594840194600190910190840162001084565b5085821015620010c45787850151600019600388901b60f8161c191681555b5050505050600190811b01905550565b634e487b7160e01b600052603260045260246000fd5b634e487b7160e01b600052602160045260246000fd5b634e487b7160e01b600052601160045260246000fd5b6000600182016200112b576200112b62001100565b5060010190565b60208152600082518060208401526200115381604085016020870162000ba9565b601f01601f19169190910160400192915050565b8051602080830151919081101562000faf5760001960209190910360031b1b16919050565b6000602082840312156200119f57600080fd5b815165ffffffffffff81168114620008fb57600080fd5b81810381811115620003c157620003c162001100565b60805160a05160c05160e051610100516101205161014051610160516152446200124e60003960008181610bf401528181611291015281816117740152818161220f01526131bc01526000611715015260006116eb015260006135330152600061350b0152600061346601526000613490015260006134ba01526152446000f3fe6080604052600436106103395760003560e01c80637e6b0f3a116101ab578063bc197c81116100f7578063deaaa7cc11610095578063ece40cc11161006f578063ece40cc114610b76578063f23a6e6114610b96578063f8ce560a14610bc2578063fc0c546a14610be257600080fd5b8063deaaa7cc14610b02578063ea0217cf14610b36578063eb9019d414610b5657600080fd5b8063c59057e4116100d1578063c59057e414610a5e578063d33219b414610a7e578063d38f834c14610a9c578063dd4e2ba514610abc57600080fd5b8063bc197c81146109e6578063c01f9e3714610a12578063c28bc2fa14610a4b57600080fd5b8063a7713a7011610164578063ae1230201161013e578063ae12302014610971578063b58131b014610991578063b868995f146109a6578063b9360fd8146109c657600080fd5b8063a7713a701461091c578063a890c91014610931578063ab58fb8e1461095157600080fd5b80637e6b0f3a1461083457806384b0196e146108745780638d73b0311461089c57806391ddadf4146108bc57806397c3d334146108e85780639a802a6d146108fc57600080fd5b80633bccf4fd1161028557806354fd4d501161022357806360c4247f116101fd57806360c4247f146107b457806370b0f660146107d45780637b3c71d3146107f45780637d5e81e21461081457600080fd5b806354fd4d501461074a57806356781388146107745780635f398a141461079457600080fd5b8063452115d61161025f578063452115d6146106a05780634bf5d7e9146106c057806350e5efd8146106d5578063544ffc9c146106f557600080fd5b80633bccf4fd146106095780633e4f49e614610629578063438596321461065657600080fd5b8063143489d0116102f25780632656227d116102cc5780632656227d146105775780632d63f6931461058a5780632fe3e261146105c05780633932abb1146105f457600080fd5b8063143489d0146104d7578063150b7a021461052c578063160cbed71461055757600080fd5b806301ffc9a7146103a957806302a251a3146103de578063034201811461040157806304787ff51461042157806306f3f9e61461049557806306fdde03146104b557600080fd5b366103a45730610347610c16565b6001600160a01b0316146103a25760405162461bcd60e51b815260206004820152601f60248201527f476f7665726e6f723a206d7573742073656e6420746f206578656375746f720060448201526064015b60405180910390fd5b005b600080fd5b3480156103b557600080fd5b506103c96103c4366004614184565b610c2f565b60405190151581526020015b60405180910390f35b3480156103ea57600080fd5b506103f3610c40565b6040519081526020016103d5565b34801561040d57600080fd5b506103f361041c3660046142c3565b610c4b565b34801561042d57600080fd5b5060408051808201909152600f81526e63616e63656c28627974657333322960881b60209091015261047c7fc4d252f50b443574fd08ee62009955d75a9b1c857437a9df3696d235adce2e3f81565b6040516001600160e01b031990911681526020016103d5565b3480156104a157600080fd5b506103a26104b0366004614369565b610d43565b3480156104c157600080fd5b506104ca610dcd565b6040516103d591906143d2565b3480156104e357600080fd5b506105146104f2366004614369565b600090815260036020526040902054600160401b90046001600160a01b031690565b6040516001600160a01b0390911681526020016103d5565b34801561053857600080fd5b5061047c6105473660046143fa565b630a85bd0160e11b949350505050565b34801561056357600080fd5b506103f36105723660046145d1565b610e5f565b6103f36105853660046145d1565b610ffe565b34801561059657600080fd5b506103f36105a5366004614369565b6000908152600360205260409020546001600160401b031690565b3480156105cc57600080fd5b506103f37fb3b3f3b703cd84ce352197dcff232b1b5d3cfb2025ce47cf04742d0651f1af8881565b34801561060057600080fd5b506103f36110f0565b34801561061557600080fd5b506103f3610624366004614660565b6110fb565b34801561063557600080fd5b50610649610644366004614369565b611171565b6040516103d591906146c4565b34801561066257600080fd5b506103c96106713660046146de565b60008281526011602090815260408083206001600160a01b038516845260030190915290205460ff1692915050565b3480156106ac57600080fd5b506103f36106bb3660046145d1565b61117c565b3480156106cc57600080fd5b506104ca61128d565b3480156106e157600080fd5b506103a26106f0366004614369565b61134f565b34801561070157600080fd5b5061072f610710366004614369565b6000908152601160205260409020805460018201546002909201549092565b604080519384526020840192909252908201526060016103d5565b34801561075657600080fd5b506040805180820190915260018152603160f81b60208201526104ca565b34801561078057600080fd5b506103f361078f36600461470e565b611403565b3480156107a057600080fd5b506103f36107af36600461473a565b61142c565b3480156107c057600080fd5b506103f36107cf366004614369565b611476565b3480156107e057600080fd5b506103a26107ef366004614369565b611527565b34801561080057600080fd5b506103f361080f3660046147bd565b6115ae565b34801561082057600080fd5b506103f361082f366004614816565b6115f6565b34801561084057600080fd5b5061086761084f366004614369565b60009081526011602052604090206004015460ff1690565b6040516103d591906148de565b34801561088057600080fd5b506108896116dd565b6040516103d59796959493929190614927565b3480156108a857600080fd5b506103c96108b7366004614369565b611765565b3480156108c857600080fd5b506108d1611770565b60405165ffffffffffff90911681526020016103d5565b3480156108f457600080fd5b5060646103f3565b34801561090857600080fd5b506103f3610917366004614989565b6117f9565b34801561092857600080fd5b506103f3611810565b34801561093d57600080fd5b506103a261094c3660046149e1565b61183a565b34801561095d57600080fd5b506103f361096c366004614369565b6118c1565b34801561097d57600080fd5b506103a261098c366004614a60565b61195b565b34801561099d57600080fd5b506103f3611c34565b3480156109b257600080fd5b506103a26109c1366004614369565b611c3f565b3480156109d257600080fd5b506103a26109e1366004614a60565b611ce4565b3480156109f257600080fd5b5061047c610a01366004614add565b63bc197c8160e01b95945050505050565b348015610a1e57600080fd5b506103f3610a2d366004614369565b6000908152600360205260409020600101546001600160401b031690565b6103a2610a59366004614b70565b611ecf565b348015610a6a57600080fd5b506103f3610a793660046145d1565b611fde565b348015610a8a57600080fd5b50600b546001600160a01b0316610514565b348015610aa857600080fd5b506103a2610ab7366004614369565b612018565b348015610ac857600080fd5b506040805180820190915260208082527f737570706f72743d627261766f2671756f72756d3d666f722c6162737461696e908201526104ca565b348015610b0e57600080fd5b506103f37f150214d74d59b7d1e90c73fc22ef3d991dd0a76b046543d4d80ab92d2a50328f81565b348015610b4257600080fd5b506103a2610b51366004614369565b6120bd565b348015610b6257600080fd5b506103f3610b71366004614bb3565b612144565b348015610b8257600080fd5b506103a2610b91366004614369565b612165565b348015610ba257600080fd5b5061047c610bb1366004614bdf565b63f23a6e6160e01b95945050505050565b348015610bce57600080fd5b506103f3610bdd366004614369565b6121ec565b348015610bee57600080fd5b506105147f000000000000000000000000000000000000000000000000000000000000000081565b6000610c2a600b546001600160a01b031690565b905090565b6000610c3a82612296565b92915050565b6000610c2a60075490565b600080610cef610ce77fb3b3f3b703cd84ce352197dcff232b1b5d3cfb2025ce47cf04742d0651f1af888c8c8c8c604051610c87929190614c47565b60405180910390208b80519060200120604051602001610ccc959493929190948552602085019390935260ff9190911660408401526060830152608082015260a00190565b604051602081830303815290604052805190602001206122bb565b8686866122e8565b9050610d358a828b8b8b8080601f0160208091040260200160405190810160405280939291908181526020018383808284376000920191909152508d9250612306915050565b9a9950505050505050505050565b610d4b610c16565b6001600160a01b0316336001600160a01b031614610d7b5760405162461bcd60e51b815260040161039990614c57565b30610d84610c16565b6001600160a01b031614610dc15760008036604051610da4929190614c47565b604051809103902090505b80610dba600461245b565b03610daf57505b610dca816124da565b50565b606060028054610ddc90614c8e565b80601f0160208091040260200160405190810160405280929190818152602001828054610e0890614c8e565b8015610e555780601f10610e2a57610100808354040283529160200191610e55565b820191906000526020600020905b815481529060010190602001808311610e3857829003601f168201915b5050505050905090565b600080610e6e86868686611fde565b90506004610e7b82611171565b6007811115610e8c57610e8c6146ae565b14610ea95760405162461bcd60e51b815260040161039990614cc8565b6000610eb58587612648565b600b5460405163b1c5f42760e01b81529192506001600160a01b03169063b1c5f42790610eef908a908a908a906000908b90600401614d9a565b602060405180830381865afa158015610f0c573d6000803e3d6000fd5b505050506040513d601f19601f82011682018060405250810190610f309190614de8565b6000838152600c602052604080822092909255600b5491516308f2a0bb60e41b81526001600160a01b0390921691638f2a0bb091610f7b918b918b918b91908b908990600401614e01565b600060405180830381600087803b158015610f9557600080fd5b505af1158015610fa9573d6000803e3d6000fd5b505050507f9a2e42fd6722813d69113e7d0079d3d940171428df7373df9c7f7617cfda2892828242610fdb9190614e6f565b604080519283526020830191909152015b60405180910390a15095945050505050565b60008061100d86868686611fde565b9050600061101a82611171565b90506004816007811115611030576110306146ae565b148061104d5750600581600781111561104b5761104b6146ae565b145b6110695760405162461bcd60e51b815260040161039990614cc8565b60008281526003602052604090819020600201805460ff19166001179055517f712ae1383f79ac853f8d882153778e0260ef8f03b504e2866e0593e04d2b291f906110b79084815260200190565b60405180910390a16110cc828888888861276d565b6110d9828888888861280f565b6110e6828888888861281c565b5095945050505050565b6000610c2a60065490565b604080517f150214d74d59b7d1e90c73fc22ef3d991dd0a76b046543d4d80ab92d2a50328f602082015290810186905260ff85166060820152600090819061114990610ce790608001610ccc565b905061116687828860405180602001604052806000815250612855565b979650505050505050565b6000610c3a82612878565b60008061118b86868686611fde565b9050600061119882611171565b60078111156111a9576111a96146ae565b146111f65760405162461bcd60e51b815260206004820152601c60248201527f476f7665726e6f723a20746f6f206c61746520746f2063616e63656c000000006044820152606401610399565b600081815260036020526040902054600160401b90046001600160a01b0316336001600160a01b0316146112775760405162461bcd60e51b815260206004820152602260248201527f476f7665726e6f723a206f6e6c792070726f706f7365722063616e2063616e63604482015261195b60f21b6064820152608401610399565b611283868686866129c2565b9695505050505050565b60607f00000000000000000000000000000000000000000000000000000000000000006001600160a01b0316634bf5d7e96040518163ffffffff1660e01b8152600401600060405180830381865afa92505050801561130e57506040513d6000823e601f3d908101601f1916820160405261130b9190810190614e82565b60015b61134a575060408051808201909152601d81527f6d6f64653d626c6f636b6e756d6265722666726f6d3d64656661756c74000000602082015290565b919050565b611357610c16565b6001600160a01b0316336001600160a01b0316146113875760405162461bcd60e51b815260040161039990614c57565b30611390610c16565b6001600160a01b0316146113cd57600080366040516113b0929190614c47565b604051809103902090505b806113c6600461245b565b036113bb57505b80600f541015806113e057506010548110155b156113fe57604051634143d81560e11b815260040160405180910390fd5b600e55565b60008033905061142484828560405180602001604052806000815250612855565b949350505050565b60008033905061116687828888888080601f0160208091040260200160405190810160405280939291908181526020018383808284376000920191909152508a9250612306915050565b600a5460009080820361148d575050600954919050565b6000600a61149c600184614eef565b815481106114ac576114ac614f02565b60009182526020918290206040805180820190915291015463ffffffff8116808352600160201b9091046001600160e01b0316928201929092529150841061150257602001516001600160e01b03169392505050565b61151661150e856129d0565b600a90612a39565b6001600160e01b0316949350505050565b61152f610c16565b6001600160a01b0316336001600160a01b03161461155f5760405162461bcd60e51b815260040161039990614c57565b30611568610c16565b6001600160a01b0316146115a55760008036604051611588929190614c47565b604051809103902090505b8061159e600461245b565b0361159357505b610dca81612aec565b60008033905061128386828787878080601f01602080910402602001604051908101604052809392919081815260200183838082843760009201919091525061285592505050565b6000805b83518110156116bb57600084828151811061161757611617614f02565b602002602001015161162890614f18565b60408051808201909152600f81526e63616e63656c28627974657333322960881b60209091015290506001600160e01b0319811663c4d252f560e01b14801561168a5750600086838151811061168057611680614f02565b6020026020010151115b156116a857604051639996b02f60e01b815260040160405180910390fd5b50806116b381614f4f565b9150506115fa565b506116c885858585612b2d565b6116d485858585612c79565b95945050505050565b6000606080828080836117107f000000000000000000000000000000000000000000000000000000000000000083612ffb565b61173b7f00000000000000000000000000000000000000000000000000000000000000006001612ffb565b60408051600080825260208201909252600f60f81b9b939a50919850469750309650945092509050565b6000610c3a826130a6565b60007f00000000000000000000000000000000000000000000000000000000000000006001600160a01b03166391ddadf46040518163ffffffff1660e01b8152600401602060405180830381865afa9250505080156117ec575060408051601f3d908101601f191682019092526117e991810190614f68565b60015b61134a57610c2a4361312c565b6000611806848484613193565b90505b9392505050565b600a546000901561183357611825600a613229565b6001600160e01b0316905090565b5060095490565b611842610c16565b6001600160a01b0316336001600160a01b0316146118725760405162461bcd60e51b815260040161039990614c57565b3061187b610c16565b6001600160a01b0316146118b8576000803660405161189b929190614c47565b604051809103902090505b806118b1600461245b565b036118a657505b610dca81613259565b600b546000828152600c602052604080822054905163d45c443560e01b81526004810191909152909182916001600160a01b039091169063d45c443590602401602060405180830381865afa15801561191e573d6000803e3d6000fd5b505050506040513d601f19601f820116820180604052508101906119429190614de8565b9050806001146119525780611809565b60009392505050565b611963610c16565b6001600160a01b0316336001600160a01b0316146119935760405162461bcd60e51b815260040161039990614c57565b3061199c610c16565b6001600160a01b0316146119d957600080366040516119bc929190614c47565b604051809103902090505b806119d2600461245b565b036119c757505b60005b8351811015611ac65760408051808201909152600f81526e63616e63656c28627974657333322960881b602090910152835163c4d252f560e01b90859083908110611a2957611a29614f02565b60200260200101516001600160e01b03191603611a595760405163a5463aa760e01b815260040160405180910390fd5b6002600d6000868481518110611a7157611a71614f02565b6020908102919091018101516001600160e01b0319168252810191909152604001600020805460ff19166001836002811115611aaf57611aaf6146ae565b021790555080611abe81614f4f565b9150506119dc565b5060005b8251811015611b40576001600d6000858481518110611aeb57611aeb614f02565b6020908102919091018101516001600160e01b0319168252810191909152604001600020805460ff19166001836002811115611b2957611b296146ae565b021790555080611b3881614f4f565b915050611aca565b5060005b8151811015611c2e5760408051808201909152600f81526e63616e63656c28627974657333322960881b602090910152815163c4d252f560e01b90839083908110611b9157611b91614f02565b60200260200101516001600160e01b03191603611bc15760405163a5463aa760e01b815260040160405180910390fd5b6000600d6000848481518110611bd957611bd9614f02565b6020908102919091018101516001600160e01b0319168252810191909152604001600020805460ff19166001836002811115611c1757611c176146ae565b021790555080611c2681614f4f565b915050611b44565b50505050565b6000610c2a60085490565b611c47610c16565b6001600160a01b0316336001600160a01b031614611c775760405162461bcd60e51b815260040161039990614c57565b30611c80610c16565b6001600160a01b031614611cbd5760008036604051611ca0929190614c47565b604051809103902090505b80611cb6600461245b565b03611cab57505b600e548110611cdf57604051634143d81560e11b815260040160405180910390fd5b600f55565b611cec610c16565b6001600160a01b0316336001600160a01b031614611d1c5760405162461bcd60e51b815260040161039990614c57565b30611d25610c16565b6001600160a01b031614611d625760008036604051611d45929190614c47565b604051809103902090505b80611d5b600461245b565b03611d5057505b60005b8351811015611ddb57600260126000868481518110611d8657611d86614f02565b6020908102919091018101516001600160e01b0319168252810191909152604001600020805460ff19166001836002811115611dc457611dc46146ae565b021790555080611dd381614f4f565b915050611d65565b5060005b8251811015611e5557600160126000858481518110611e0057611e00614f02565b6020908102919091018101516001600160e01b0319168252810191909152604001600020805460ff19166001836002811115611e3e57611e3e6146ae565b021790555080611e4d81614f4f565b915050611ddf565b5060005b8151811015611c2e57600060126000848481518110611e7a57611e7a614f02565b6020908102919091018101516001600160e01b0319168252810191909152604001600020805460ff19166001836002811115611eb857611eb86146ae565b021790555080611ec781614f4f565b915050611e59565b611ed7610c16565b6001600160a01b0316336001600160a01b031614611f075760405162461bcd60e51b815260040161039990614c57565b30611f10610c16565b6001600160a01b031614611f4d5760008036604051611f30929190614c47565b604051809103902090505b80611f46600461245b565b03611f3b57505b600080856001600160a01b0316858585604051611f6b929190614c47565b60006040518083038185875af1925050503d8060008114611fa8576040519150601f19603f3d011682016040523d82523d6000602084013e611fad565b606091505b5091509150611fd582826040518060600160405280602881526020016151e7602891396132c2565b50505050505050565b600084848484604051602001611ff79493929190614f90565b60408051601f19818403018152919052805160209091012095945050505050565b612020610c16565b6001600160a01b0316336001600160a01b0316146120505760405162461bcd60e51b815260040161039990614c57565b30612059610c16565b6001600160a01b0316146120965760008036604051612079929190614c47565b604051809103902090505b8061208f600461245b565b0361208457505b600e5481116120b857604051634143d81560e11b815260040160405180910390fd5b601055565b6120c5610c16565b6001600160a01b0316336001600160a01b0316146120f55760405162461bcd60e51b815260040161039990614c57565b306120fe610c16565b6001600160a01b03161461213b576000803660405161211e929190614c47565b604051809103902090505b80612134600461245b565b0361212957505b610dca816132db565b6000611809838361216060408051602081019091526000815290565b613193565b61216d610c16565b6001600160a01b0316336001600160a01b03161461219d5760405162461bcd60e51b815260040161039990614c57565b306121a6610c16565b6001600160a01b0316146121e357600080366040516121c6929190614c47565b604051809103902090505b806121dc600461245b565b036121d157505b610dca8161337c565b600060646121f983611476565b604051632394e7a360e21b8152600481018590527f00000000000000000000000000000000000000000000000000000000000000006001600160a01b031690638e539e8c90602401602060405180830381865afa15801561225e573d6000803e3d6000fd5b505050506040513d601f19601f820116820180604052508101906122829190614de8565b61228c9190614fdb565b610c3a9190615008565b60006001600160e01b03198216636e665ced60e01b1480610c3a5750610c3a826133bd565b6000610c3a6122c8613459565b8360405161190160f01b8152600281019290925260228201526042902090565b60008060006122f987878787613584565b915091506110e681613648565b6000858152600360205260408120600161231f88611171565b6007811115612330576123306146ae565b146123895760405162461bcd60e51b815260206004820152602360248201527f476f7665726e6f723a20766f7465206e6f742063757272656e746c792061637460448201526269766560e81b6064820152608401610399565b80546000906123a39088906001600160401b031686613193565b90506123b28888888488613792565b835160000361240757866001600160a01b03167fb8e138887d0aa13bab447e82de9d5c1777041ecd21ca36ba824ff1e6c07ddda4898884896040516123fa949392919061502a565b60405180910390a2611166565b866001600160a01b03167fe2babfbac5889a709b63bb7f598b324e08bc5a4fb9ec647fb3cbc9ec07eb87128988848989604051612448959493929190615052565b60405180910390a2979650505050505050565b60006124768254600f81810b600160801b909204900b131590565b1561249457604051631ed9509560e11b815260040160405180910390fd5b508054600f0b6000818152600180840160205260408220805492905583546fffffffffffffffffffffffffffffffff191692016001600160801b03169190911790915590565b606481111561255d5760405162461bcd60e51b815260206004820152604360248201527f476f7665726e6f72566f74657351756f72756d4672616374696f6e3a2071756f60448201527f72756d4e756d657261746f72206f7665722071756f72756d44656e6f6d696e616064820152623a37b960e91b608482015260a401610399565b6000612567611810565b905080158015906125785750600a54155b156125dc576040805180820190915260008152600a906020810161259b8461390c565b6001600160e01b039081169091528254600181018455600093845260209384902083519490930151909116600160201b0263ffffffff909316929092179101555b6126096125f76125ea611770565b65ffffffffffff166129d0565b6126008461390c565b600a9190613975565b505060408051828152602081018490527f0553476bf02ef2726e8ce5ced78d63e26e602e4a2257b1f559418e24b4633997910160405180910390a15050565b81516000901515815b845181101561273f57600085828151811061266e5761266e614f02565b602002602001015161267f90614f18565b9050600085838151811061269557612695614f02565b602002602001015111156126bc57600c6010546126b29190614fdb565b9350505050610c3a565b6001600160e01b031981166000908152600d602052604090205460ff1660028160028111156126ed576126ed6146ae565b0361270c57600c6010546127019190614fdb565b945050505050610c3a565b6001816002811115612720576127206146ae565b1461272a57600093505b5050808061273790614f4f565b915050612651565b5060018115151461275e57600c600e546127599190614fdb565b611424565b600c600f546114249190614fdb565b30612776610c16565b6001600160a01b0316146128085760005b845181101561280657306001600160a01b03168582815181106127ac576127ac614f02565b60200260200101516001600160a01b0316036127f6576127f68382815181106127d7576127d7614f02565b602002602001015180519060200120600461399090919063ffffffff16565b6127ff81614f4f565b9050612787565b505b5050505050565b61280885858585856139cc565b30612825610c16565b6001600160a01b03161461280857600454600f81810b600160801b909204900b1315612808576000600455612808565b60006116d48585858561287360408051602081019091526000815290565b612306565b60008061288483613a40565b9050600481600781111561289a5761289a6146ae565b146128a55792915050565b6000838152600c6020526040902054806128c0575092915050565b600b54604051632ab0f52960e01b8152600481018390526001600160a01b0390911690632ab0f52990602401602060405180830381865afa158015612909573d6000803e3d6000fd5b505050506040513d601f19601f8201168201806040525081019061292d9190615098565b1561293c575060079392505050565b600b54604051632c258a9f60e11b8152600481018390526001600160a01b039091169063584b153e90602401602060405180830381865afa158015612985573d6000803e3d6000fd5b505050506040513d601f19601f820116820180604052508101906129a99190615098565b156129b8575060059392505050565b5060029392505050565b60006116d485858585613b71565b600063ffffffff821115612a355760405162461bcd60e51b815260206004820152602660248201527f53616665436173743a2076616c756520646f65736e27742066697420696e203360448201526532206269747360d01b6064820152608401610399565b5090565b815460009081816005811115612a96576000612a5484613c7d565b612a5e9085614eef565b60008881526020902090915081015463ffffffff9081169087161015612a8657809150612a94565b612a91816001614e6f565b92505b505b6000612aa487878585613d65565b90508015612adf57612ac987612abb600184614eef565b600091825260209091200190565b54600160201b90046001600160e01b0316611166565b6000979650505050505050565b60065460408051918252602082018390527fc565b045403dc03c2eea82b81a0465edad9e2e7fc4d97e11421c209da93d7a93910160405180910390a1600655565b6000612b428585858580519060200120611fde565b90506000805b8451811015612c04576000858281518110612b6557612b65614f02565b6020026020010151612b7690614f18565b905060026001600160e01b0319821660009081526012602052604090205460ff166002811115612ba857612ba86146ae565b03612bb7576002925050612c04565b60016001600160e01b0319821660009081526012602052604090205460ff166002811115612be757612be76146ae565b03612bf157600192505b5080612bfc81614f4f565b915050612b48565b506000828152601160205260409020600401805482919060ff19166001836002811115612c3357612c336146ae565b02179055507f841a3e9afbfb660262d49ff0e2a723d3d332174f7ae8f328e54907a421ef48fd8282604051612c699291906150ba565b60405180910390a1505050505050565b60003381612c85611770565b65ffffffffffff169050612c97611c34565b612ca683610b71600185614eef565b1015612d0e5760405162461bcd60e51b815260206004820152603160248201527f476f7665726e6f723a2070726f706f73657220766f7465732062656c6f7720706044820152701c9bdc1bdcd85b081d1a1c995cda1bdb19607a1b6064820152608401610399565b6000612d238888888880519060200120611fde565b90508651885114612d465760405162461bcd60e51b8152600401610399906150ce565b8551885114612d675760405162461bcd60e51b8152600401610399906150ce565b6000885111612db85760405162461bcd60e51b815260206004820152601860248201527f476f7665726e6f723a20656d7074792070726f706f73616c00000000000000006044820152606401610399565b6000818152600360205260409020546001600160401b031615612e275760405162461bcd60e51b815260206004820152602160248201527f476f7665726e6f723a2070726f706f73616c20616c72656164792065786973746044820152607360f81b6064820152608401610399565b6000612e316110f0565b612e3b9084614e6f565b90506000612e47610c40565b612e519083614e6f565b90506040518060e00160405280612e6784613dc3565b6001600160401b031681526001600160a01b038716602082015260006040820152606001612e9483613dc3565b6001600160401b039081168252600060208084018290526040808501839052606094850183905288835260038252918290208551815492870151878501519186166001600160e01b031990941693909317600160401b6001600160a01b039094168402176001600160e01b0316600160e01b60e09290921c91909102178155938501516080860151908416921c0217600183015560a08301516002909201805460c09094015161ffff1990941692151561ff00191692909217610100931515939093029290921790558a517f7d84a6263ae0d98d3329bd7b46bb4e8d6f98cd35a7adb45c274c8b7fd5ebd5e091859188918e918e91811115612f9857612f986141f8565b604051908082528060200260200182016040528015612fcb57816020015b6060815260200190600190039081612fb65790505b508d88888f604051612fe59998979695949392919061510f565b60405180910390a1509098975050505050505050565b606060ff83146130155761300e83613e2b565b9050610c3a565b81805461302190614c8e565b80601f016020809104026020016040519081016040528092919081815260200182805461304d90614c8e565b801561309a5780601f1061306f5761010080835404028352916020019161309a565b820191906000526020600020905b81548152906001019060200180831161307d57829003601f168201915b50505050509050610c3a565b6000818152601160205260408120600481015482919060ff1660028160028111156130d3576130d36146ae565b036130f25781546130e5906003614fdb565b8260010154119250613123565b6001816002811115613106576131066146ae565b036131185781546130e5906002614fdb565b815460018301541192505b50909392505050565b600065ffffffffffff821115612a355760405162461bcd60e51b815260206004820152602660248201527f53616665436173743a2076616c756520646f65736e27742066697420696e203460448201526538206269747360d01b6064820152608401610399565b604051630748d63560e31b81526001600160a01b038481166004830152602482018490526000917f000000000000000000000000000000000000000000000000000000000000000090911690633a46b1a890604401602060405180830381865afa158015613205573d6000803e3d6000fd5b505050506040513d601f19601f820116820180604052508101906118069190614de8565b805460009080156119525761324383612abb600184614eef565b54600160201b90046001600160e01b0316611809565b600b54604080516001600160a01b03928316815291831660208301527f08f74ea46ef7894f65eabfb5e6e695de773a000b47c529ab559178069b226401910160405180910390a1600b80546001600160a01b0319166001600160a01b0392909216919091179055565b606083156132d1575081611809565b6118098383613e6a565b6000811161333b5760405162461bcd60e51b815260206004820152602760248201527f476f7665726e6f7253657474696e67733a20766f74696e6720706572696f6420604482015266746f6f206c6f7760c81b6064820152608401610399565b60075460408051918252602082018390527f7e3f7f0708a84de9203036abaa450dccc85ad5ff52f78c170f3edb55cf5e8828910160405180910390a1600755565b60085460408051918252602082018390527fccb45da8d5717e6c4544694297c4ba5cf151d455c9bb0ed4fc7a38411bc05461910160405180910390a1600855565b600063288ace0360e11b6318df743f60e31b63bf26d89760e01b6379dd796f60e01b6001600160e01b0319861682148061340357506001600160e01b0319868116908216145b8061341a57506001600160e01b0319868116908516145b8061343557506001600160e01b03198616630271189760e51b145b8061128357506301ffc9a760e01b6001600160e01b03198716149695505050505050565b6000306001600160a01b037f0000000000000000000000000000000000000000000000000000000000000000161480156134b257507f000000000000000000000000000000000000000000000000000000000000000046145b156134dc57507f000000000000000000000000000000000000000000000000000000000000000090565b610c2a604080517f8b73c3c69bb8fe3d512ecc4cf759cc79239f7b179b0ffacaa9a75d522b39400f60208201527f0000000000000000000000000000000000000000000000000000000000000000918101919091527f000000000000000000000000000000000000000000000000000000000000000060608201524660808201523060a082015260009060c00160405160208183030381529060405280519060200120905090565b6000807f7fffffffffffffffffffffffffffffff5d576e7357a4501ddfe92f46681b20a08311156135bb575060009050600361363f565b6040805160008082526020820180845289905260ff881692820192909252606081018690526080810185905260019060a0016020604051602081039080840390855afa15801561360f573d6000803e3d6000fd5b5050604051601f1901519150506001600160a01b0381166136385760006001925092505061363f565b9150600090505b94509492505050565b600081600481111561365c5761365c6146ae565b036136645750565b6001816004811115613678576136786146ae565b036136c55760405162461bcd60e51b815260206004820152601860248201527f45434453413a20696e76616c6964207369676e617475726500000000000000006044820152606401610399565b60028160048111156136d9576136d96146ae565b036137265760405162461bcd60e51b815260206004820152601f60248201527f45434453413a20696e76616c6964207369676e6174757265206c656e677468006044820152606401610399565b600381600481111561373a5761373a6146ae565b03610dca5760405162461bcd60e51b815260206004820152602260248201527f45434453413a20696e76616c6964207369676e6174757265202773272076616c604482015261756560f01b6064820152608401610399565b60008581526011602090815260408083206001600160a01b0388168452600381019092529091205460ff161561381a5760405162461bcd60e51b815260206004820152602760248201527f476f7665726e6f72566f74696e6753696d706c653a20766f746520616c726561604482015266191e4818d85cdd60ca1b6064820152608401610399565b6001600160a01b03851660009081526003820160205260409020805460ff1916600117905560ff8416613866578281600001600082825461385b9190614e6f565b909155506128069050565b60001960ff851601613886578281600101600082825461385b9190614e6f565b60011960ff8516016138a6578281600201600082825461385b9190614e6f565b60405162461bcd60e51b815260206004820152603560248201527f476f7665726e6f72566f74696e6753696d706c653a20696e76616c69642076616044820152746c756520666f7220656e756d20566f74655479706560581b6064820152608401610399565b60006001600160e01b03821115612a355760405162461bcd60e51b815260206004820152602760248201527f53616665436173743a2076616c756520646f65736e27742066697420696e20326044820152663234206269747360c81b6064820152608401610399565b600080613983858585613e94565b915091505b935093915050565b8154600160801b90819004600f0b6000818152600180860160205260409091209390935583546001600160801b03908116939091011602179055565b600b5460405163e38335e560e01b81526001600160a01b039091169063e38335e5903490613a07908890889088906000908990600401614d9a565b6000604051808303818588803b158015613a2057600080fd5b505af1158015613a34573d6000803e3d6000fd5b50505050505050505050565b6000818152600360205260408120600281015460ff1615613a645750600792915050565b6002810154610100900460ff1615613a7f5750600292915050565b6000838152600360205260408120546001600160401b031690819003613ae75760405162461bcd60e51b815260206004820152601d60248201527f476f7665726e6f723a20756e6b6e6f776e2070726f706f73616c2069640000006044820152606401610399565b6000613af1611770565b65ffffffffffff169050808210613b0d57506000949350505050565b6000858152600360205260409020600101546001600160401b0316818110613b3b5750600195945050505050565b613b4486614033565b8015613b545750613b54866130a6565b15613b655750600495945050505050565b50600395945050505050565b600080613b8086868686611fde565b90506000613b8d82611171565b90506002816007811115613ba357613ba36146ae565b14158015613bc357506006816007811115613bc057613bc06146ae565b14155b8015613be157506007816007811115613bde57613bde6146ae565b14155b613c2d5760405162461bcd60e51b815260206004820152601d60248201527f476f7665726e6f723a2070726f706f73616c206e6f74206163746976650000006044820152606401610399565b60008281526003602052604090819020600201805461ff001916610100179055517f789cf55be980739dad1d0699b93b58e806b51c9d96619bfa8fe0a28abaa7b30c90610fec9084815260200190565b600081600003613c8f57506000919050565b60006001613c9c8461407f565b901c6001901b90506001818481613cb557613cb5614ff2565b048201901c90506001818481613ccd57613ccd614ff2565b048201901c90506001818481613ce557613ce5614ff2565b048201901c90506001818481613cfd57613cfd614ff2565b048201901c90506001818481613d1557613d15614ff2565b048201901c90506001818481613d2d57613d2d614ff2565b048201901c90506001818481613d4557613d45614ff2565b048201901c905061180981828581613d5f57613d5f614ff2565b04614113565b60005b81831015613dbb576000613d7c8484614129565b60008781526020902090915063ffffffff86169082015463ffffffff161115613da757809250613db5565b613db2816001614e6f565b93505b50613d68565b509392505050565b60006001600160401b03821115612a355760405162461bcd60e51b815260206004820152602660248201527f53616665436173743a2076616c756520646f65736e27742066697420696e203660448201526534206269747360d01b6064820152608401610399565b60606000613e3883614144565b604080516020808252818301909252919250600091906020820181803683375050509182525060208101929092525090565b815115613e7a5781518083602001fd5b8060405162461bcd60e51b815260040161039991906143d2565b825460009081908015613fda576000613eb287612abb600185614eef565b60408051808201909152905463ffffffff808216808452600160201b9092046001600160e01b031660208401529192509087161015613f335760405162461bcd60e51b815260206004820152601b60248201527f436865636b706f696e743a2064656372656173696e67206b65797300000000006044820152606401610399565b805163ffffffff808816911603613f7b5784613f5488612abb600186614eef565b80546001600160e01b0392909216600160201b0263ffffffff909216919091179055613fca565b6040805180820190915263ffffffff80881682526001600160e01b0380881660208085019182528b54600181018d5560008d81529190912094519151909216600160201b029216919091179101555b6020015192508391506139889050565b50506040805180820190915263ffffffff80851682526001600160e01b0380851660208085019182528854600181018a5560008a815291822095519251909316600160201b029190931617920191909155905081613988565b6000818152601160205260408120600281015460018201546140559190614e6f565b600084815260036020526040902054614076906001600160401b03166121ec565b11159392505050565b600080608083901c1561409457608092831c92015b604083901c156140a657604092831c92015b602083901c156140b857602092831c92015b601083901c156140ca57601092831c92015b600883901c156140dc57600892831c92015b600483901c156140ee57600492831c92015b600283901c1561410057600292831c92015b600183901c15610c3a5760010192915050565b60008183106141225781611809565b5090919050565b60006141386002848418615008565b61180990848416614e6f565b600060ff8216601f811115610c3a57604051632cd44ac360e21b815260040160405180910390fd5b80356001600160e01b03198116811461134a57600080fd5b60006020828403121561419657600080fd5b6118098261416c565b803560ff8116811461134a57600080fd5b60008083601f8401126141c257600080fd5b5081356001600160401b038111156141d957600080fd5b6020830191508360208285010111156141f157600080fd5b9250929050565b634e487b7160e01b600052604160045260246000fd5b604051601f8201601f191681016001600160401b0381118282101715614236576142366141f8565b604052919050565b60006001600160401b03821115614257576142576141f8565b50601f01601f191660200190565b60006142786142738461423e565b61420e565b905082815283838301111561428c57600080fd5b828260208301376000602084830101529392505050565b600082601f8301126142b457600080fd5b61180983833560208501614265565b60008060008060008060008060e0898b0312156142df57600080fd5b883597506142ef60208a0161419f565b965060408901356001600160401b038082111561430b57600080fd5b6143178c838d016141b0565b909850965060608b013591508082111561433057600080fd5b5061433d8b828c016142a3565b94505061434c60808a0161419f565b925060a0890135915060c089013590509295985092959890939650565b60006020828403121561437b57600080fd5b5035919050565b60005b8381101561439d578181015183820152602001614385565b50506000910152565b600081518084526143be816020860160208601614382565b601f01601f19169290920160200192915050565b60208152600061180960208301846143a6565b6001600160a01b0381168114610dca57600080fd5b6000806000806080858703121561441057600080fd5b843561441b816143e5565b9350602085013561442b816143e5565b92506040850135915060608501356001600160401b0381111561444d57600080fd5b614459878288016142a3565b91505092959194509250565b60006001600160401b0382111561447e5761447e6141f8565b5060051b60200190565b600082601f83011261449957600080fd5b813560206144a961427383614465565b82815260059290921b840181019181810190868411156144c857600080fd5b8286015b848110156144ec5780356144df816143e5565b83529183019183016144cc565b509695505050505050565b600082601f83011261450857600080fd5b8135602061451861427383614465565b82815260059290921b8401810191818101908684111561453757600080fd5b8286015b848110156144ec578035835291830191830161453b565b600082601f83011261456357600080fd5b8135602061457361427383614465565b82815260059290921b8401810191818101908684111561459257600080fd5b8286015b848110156144ec5780356001600160401b038111156145b55760008081fd5b6145c38986838b01016142a3565b845250918301918301614596565b600080600080608085870312156145e757600080fd5b84356001600160401b03808211156145fe57600080fd5b61460a88838901614488565b9550602087013591508082111561462057600080fd5b61462c888389016144f7565b9450604087013591508082111561464257600080fd5b5061464f87828801614552565b949793965093946060013593505050565b600080600080600060a0868803121561467857600080fd5b853594506146886020870161419f565b93506146966040870161419f565b94979396509394606081013594506080013592915050565b634e487b7160e01b600052602160045260246000fd5b60208101600883106146d8576146d86146ae565b91905290565b600080604083850312156146f157600080fd5b823591506020830135614703816143e5565b809150509250929050565b6000806040838503121561472157600080fd5b823591506147316020840161419f565b90509250929050565b60008060008060006080868803121561475257600080fd5b853594506147626020870161419f565b935060408601356001600160401b038082111561477e57600080fd5b61478a89838a016141b0565b909550935060608801359150808211156147a357600080fd5b506147b0888289016142a3565b9150509295509295909350565b600080600080606085870312156147d357600080fd5b843593506147e36020860161419f565b925060408501356001600160401b038111156147fe57600080fd5b61480a878288016141b0565b95989497509550505050565b6000806000806080858703121561482c57600080fd5b84356001600160401b038082111561484357600080fd5b61484f88838901614488565b9550602087013591508082111561486557600080fd5b614871888389016144f7565b9450604087013591508082111561488757600080fd5b61489388838901614552565b935060608701359150808211156148a957600080fd5b508501601f810187136148bb57600080fd5b61445987823560208401614265565b600381106148da576148da6146ae565b9052565b60208101610c3a82846148ca565b600081518084526020808501945080840160005b8381101561491c57815187529582019590820190600101614900565b509495945050505050565b60ff60f81b8816815260e06020820152600061494660e08301896143a6565b828103604084015261495881896143a6565b606084018890526001600160a01b038716608085015260a0840186905283810360c08501529050610d3581856148ec565b60008060006060848603121561499e57600080fd5b83356149a9816143e5565b92506020840135915060408401356001600160401b038111156149cb57600080fd5b6149d7868287016142a3565b9150509250925092565b6000602082840312156149f357600080fd5b8135611809816143e5565b600082601f830112614a0f57600080fd5b81356020614a1f61427383614465565b82815260059290921b84018101918181019086841115614a3e57600080fd5b8286015b848110156144ec57614a538161416c565b8352918301918301614a42565b600080600060608486031215614a7557600080fd5b83356001600160401b0380821115614a8c57600080fd5b614a98878388016149fe565b94506020860135915080821115614aae57600080fd5b614aba878388016149fe565b93506040860135915080821115614ad057600080fd5b506149d7868287016149fe565b600080600080600060a08688031215614af557600080fd5b8535614b00816143e5565b94506020860135614b10816143e5565b935060408601356001600160401b0380821115614b2c57600080fd5b614b3889838a016144f7565b94506060880135915080821115614b4e57600080fd5b614b5a89838a016144f7565b935060808801359150808211156147a357600080fd5b60008060008060608587031215614b8657600080fd5b8435614b91816143e5565b93506020850135925060408501356001600160401b038111156147fe57600080fd5b60008060408385031215614bc657600080fd5b8235614bd1816143e5565b946020939093013593505050565b600080600080600060a08688031215614bf757600080fd5b8535614c02816143e5565b94506020860135614c12816143e5565b9350604086013592506060860135915060808601356001600160401b03811115614c3b57600080fd5b6147b0888289016142a3565b8183823760009101908152919050565b60208082526018908201527f476f7665726e6f723a206f6e6c79476f7665726e616e63650000000000000000604082015260600190565b600181811c90821680614ca257607f821691505b602082108103614cc257634e487b7160e01b600052602260045260246000fd5b50919050565b60208082526021908201527f476f7665726e6f723a2070726f706f73616c206e6f74207375636365737366756040820152601b60fa1b606082015260800190565b600081518084526020808501945080840160005b8381101561491c5781516001600160a01b031687529582019590820190600101614d1d565b600082825180855260208086019550808260051b84010181860160005b84811015614d8d57601f19868403018952614d7b8383516143a6565b98840198925090830190600101614d5f565b5090979650505050505050565b60a081526000614dad60a0830188614d09565b8281036020840152614dbf81886148ec565b90508281036040840152614dd38187614d42565b60608401959095525050608001529392505050565b600060208284031215614dfa57600080fd5b5051919050565b60c081526000614e1460c0830189614d09565b8281036020840152614e2681896148ec565b90508281036040840152614e3a8188614d42565b60608401969096525050608081019290925260a0909101529392505050565b634e487b7160e01b600052601160045260246000fd5b80820180821115610c3a57610c3a614e59565b600060208284031215614e9457600080fd5b81516001600160401b03811115614eaa57600080fd5b8201601f81018413614ebb57600080fd5b8051614ec96142738261423e565b818152856020838501011115614ede57600080fd5b6116d4826020830160208601614382565b81810381811115610c3a57610c3a614e59565b634e487b7160e01b600052603260045260246000fd5b805160208201516001600160e01b03198082169291906004831015614f475780818460040360031b1b83161693505b505050919050565b600060018201614f6157614f61614e59565b5060010190565b600060208284031215614f7a57600080fd5b815165ffffffffffff8116811461180957600080fd5b608081526000614fa36080830187614d09565b8281036020840152614fb581876148ec565b90508281036040840152614fc98186614d42565b91505082606083015295945050505050565b8082028115828204841417610c3a57610c3a614e59565b634e487b7160e01b600052601260045260246000fd5b60008261502557634e487b7160e01b600052601260045260246000fd5b500490565b84815260ff8416602082015282604082015260806060820152600061128360808301846143a6565b85815260ff8516602082015283604082015260a06060820152600061507a60a08301856143a6565b828103608084015261508c81856143a6565b98975050505050505050565b6000602082840312156150aa57600080fd5b8151801515811461180957600080fd5b8281526040810161180960208301846148ca565b60208082526021908201527f476f7665726e6f723a20696e76616c69642070726f706f73616c206c656e67746040820152600d60fb1b606082015260800190565b60006101208b8352602060018060a01b038c16818501528160408501526151388285018c614d09565b9150838203606085015261514c828b6148ec565b915083820360808501528189518084528284019150828160051b850101838c0160005b8381101561519d57601f1987840301855261518b8383516143a6565b9486019492509085019060010161516f565b505086810360a08801526151b1818c614d42565b9450505050508560c08401528460e08401528281036101008401526151d681856143a6565b9c9b50505050505050505050505056fe476f7665726e6f723a2072656c617920726576657274656420776974686f7574206d657373616765a2646970667358221220794aa096a6327470554b2662db137357e2a9d0b91b8b7c6e6540e75b77c3455464736f6c63430008130033",
  "devdoc": {
    "author": "ShamirLabs",
    "errors": {
      "CancelProposalMustHaveShortDelay()": [
        {
          "details": "Custom error for invalid configuration of delays"
        }
      ],
      "CancellationProposalCannotHaveValue()": [
        {
          "details": "A cancellation proposal cannot have a value"
        }
      ],
      "DaoInvalidDelaysConfiguration()": [
        {
          "details": "Custom error for invalid configuration of delays"
        }
      ],
      "DaoInvalidDelaysSetup()": [
        {
          "details": "Custom error for invalid configuration of delays"
        }
      ],
      "DaoInvalidThresholdTypeConfiguration()": [
        {
          "details": "Custom error for invalid configuration of thresholds"
        }
      ],
      "Empty()": [
        {
          "details": "An operation (e.g. {front}) couldn't be completed due to the queue being empty."
        }
      ],
      "InvalidDelayValue()": [
        {
          "details": "Custom error for invalid configuration of delays"
        }
      ]
    },
    "events": {
      "EIP712DomainChanged()": {
        "details": "MAY be emitted to signal that the domain could have changed."
      },
      "ProposalCanceled(uint256)": {
        "details": "Emitted when a proposal is canceled."
      },
      "ProposalCreated(uint256,address,address[],uint256[],string[],bytes[],uint256,uint256,string)": {
        "details": "Emitted when a proposal is created."
      },
      "ProposalExecuted(uint256)": {
        "details": "Emitted when a proposal is executed."
      },
      "SuccessThresholdTypeSet(uint256,uint8)": {
        "details": "emitted when a proposal success threshold is set"
      },
      "TimelockChange(address,address)": {
        "details": "Emitted when the timelock controller used for proposal execution is modified."
      },
      "VoteCast(address,uint256,uint8,uint256,string)": {
        "details": "Emitted when a vote is cast without params. Note: `support` values should be seen as buckets. Their interpretation depends on the voting module used."
      },
      "VoteCastWithParams(address,uint256,uint8,uint256,string,bytes)": {
        "details": "Emitted when a vote is cast with params. Note: `support` values should be seen as buckets. Their interpretation depends on the voting module used. `params` are additional encoded parameters. Their interpepretation also depends on the voting module used."
      }
    },
    "kind": "dev",
    "methods": {
      "CLOCK_MODE()": {
        "details": "Machine-readable description of the clock as specified in EIP-6372."
      },
      "COUNTING_MODE()": {
        "details": "See {IGovernor-COUNTING_MODE}."
      },
      "addDelayConfiguration(bytes4[],bytes4[],bytes4[])": {
        "params": {
          "signaturesDefaultDelay": "function signatures to be set with a default delay",
          "signaturesLongDelay": "function signatures to be set with a long delay",
          "signaturesShortDelay": "function signatures to be set with a short delay"
        }
      },
      "addThresholdConfiguration(bytes4[],bytes4[],bytes4[])": {
        "params": {
          "signaturesDefaultThreshold": "list of function signatures that should have a default threshold",
          "signaturesLargeThreshold": "list of function signatures that should have a large threshold",
          "signaturesModerateThreshold": "list of function signatures that should have a moderate threshold"
        }
      },
      "cancel(address[],uint256[],bytes[],bytes32)": {
        "details": "See {IGovernor-cancel}."
      },
      "castVote(uint256,uint8)": {
        "details": "See {IGovernor-castVote}."
      },
      "castVoteBySig(uint256,uint8,uint8,bytes32,bytes32)": {
        "details": "See {IGovernor-castVoteBySig}."
      },
      "castVoteWithReason(uint256,uint8,string)": {
        "details": "See {IGovernor-castVoteWithReason}."
      },
      "castVoteWithReasonAndParams(uint256,uint8,string,bytes)": {
        "details": "See {IGovernor-castVoteWithReasonAndParams}."
      },
      "castVoteWithReasonAndParamsBySig(uint256,uint8,string,bytes,uint8,bytes32,bytes32)": {
        "details": "See {IGovernor-castVoteWithReasonAndParamsBySig}."
      },
      "clock()": {
        "details": "Clock (as specified in EIP-6372) is set to match the token's clock. Fallback to block numbers if the token does not implement EIP-6372."
      },
      "constructor": {
        "details": "DivaGovernor Constructor",
        "params": {
          "_settings": "governor settings",
          "_timelock": "DivaTimelockControlller instance",
          "_token": "ERC20 token with ERC20Votes extension"
        }
      },
      "eip712Domain()": {
        "details": "See {EIP-5267}. _Available since v4.9._"
      },
      "execute(address[],uint256[],bytes[],bytes32)": {
        "details": "See {IGovernor-execute}."
      },
      "getSuccessThreshold(uint256)": {
        "params": {
          "proposalId": "function signature"
        }
      },
      "getVotes(address,uint256)": {
        "details": "See {IGovernor-getVotes}."
      },
      "getVotesWithParams(address,uint256,bytes)": {
        "details": "See {IGovernor-getVotesWithParams}."
      },
      "hasVoted(uint256,address)": {
        "details": "See {IGovernor-hasVoted}."
      },
      "hashProposal(address[],uint256[],bytes[],bytes32)": {
        "details": "See {IGovernor-hashProposal}. The proposal id is produced by hashing the ABI encoded `targets` array, the `values` array, the `calldatas` array and the descriptionHash (bytes32 which itself is the keccak256 hash of the description string). This proposal id can be produced from the proposal data which is part of the {ProposalCreated} event. It can even be computed in advance, before the proposal is submitted. Note that the chainId and the governor address are not part of the proposal id computation. Consequently, the same proposal (with same operation and same description) will have the same id if submitted on multiple governors across multiple networks. This also means that in order to execute the same operation twice (on the same governor) the proposer will have to change the description in order to avoid proposal id conflicts."
      },
      "name()": {
        "details": "See {IGovernor-name}."
      },
      "onERC1155BatchReceived(address,address,uint256[],uint256[],bytes)": {
        "details": "See {IERC1155Receiver-onERC1155BatchReceived}."
      },
      "onERC1155Received(address,address,uint256,uint256,bytes)": {
        "details": "See {IERC1155Receiver-onERC1155Received}."
      },
      "onERC721Received(address,address,uint256,bytes)": {
        "details": "See {IERC721Receiver-onERC721Received}."
      },
      "proposalDeadline(uint256)": {
        "details": "See {IGovernor-proposalDeadline}."
      },
      "proposalEta(uint256)": {
        "details": "Public accessor to check the eta of a queued proposal"
      },
      "proposalProposer(uint256)": {
        "details": "Returns the account that created a given proposal."
      },
      "proposalSnapshot(uint256)": {
        "details": "See {IGovernor-proposalSnapshot}."
      },
      "proposalThreshold()": {
        "details": "Voting power need to be able to create a proposal"
      },
      "proposalVotes(uint256)": {
        "details": "Accessor to the internal vote counts."
      },
      "propose(address[],uint256[],bytes[],string)": {
        "details": "Submit a proposal on-chain",
        "params": {
          "calldatas": "list of calldatas for the call",
          "description": "description of the proposal",
          "targets": "list of contracts to call",
          "values": "list of values to pass in the call"
        }
      },
      "queue(address[],uint256[],bytes[],bytes32)": {
        "details": "Function to queue a proposal to the timelock."
      },
      "quorum(uint256)": {
        "details": "Returns the quorum for a timepoint, in terms of number of votes: `supply * numerator / denominator`."
      },
      "quorumDenominator()": {
        "details": "Returns the quorum denominator. Defaults to 100, but may be overridden."
      },
      "quorumNumerator()": {
        "details": "Returns the current quorum numerator. See {quorumDenominator}."
      },
      "quorumNumerator(uint256)": {
        "details": "Returns the quorum numerator at a specific timepoint. See {quorumDenominator}."
      },
      "relay(address,uint256,bytes)": {
        "details": "Relays a transaction or function call to an arbitrary target. In cases where the governance executor is some contract other than the governor itself, like when using a timelock, this function can be invoked in a governance proposal to recover tokens or Ether that was sent to the governor contract by mistake. Note that if the executor is simply the governor itself, use of `relay` is redundant."
      },
      "setProposalThreshold(uint256)": {
        "details": "Update the proposal threshold. This operation can only be performed through a governance proposal. Emits a {ProposalThresholdSet} event."
      },
      "setVotingDelay(uint256)": {
        "details": "Update the voting delay. This operation can only be performed through a governance proposal. Emits a {VotingDelaySet} event."
      },
      "setVotingPeriod(uint256)": {
        "details": "Update the voting period. This operation can only be performed through a governance proposal. Emits a {VotingPeriodSet} event."
      },
      "state(uint256)": {
        "details": "Get the state of a proposal",
        "params": {
          "proposalId": "id of the proposal"
        }
      },
      "timelock()": {
        "details": "Public accessor to check the address of the timelock"
      },
      "updateDefaultDelay(uint256)": {
        "params": {
          "newDelay": "new delay to be set"
        }
      },
      "updateLongDelay(uint256)": {
        "params": {
          "newDelay": "new delay to be set"
        }
      },
      "updateQuorumNumerator(uint256)": {
        "details": "Changes the quorum numerator. Emits a {QuorumNumeratorUpdated} event. Requirements: - Must be called through a governance proposal. - New numerator must be smaller or equal to the denominator."
      },
      "updateShortDelay(uint256)": {
        "params": {
          "newDelay": "new delay to be set"
        }
      },
      "updateTimelock(address)": {
        "details": "Public endpoint to update the underlying timelock instance. Restricted to the timelock itself, so updates must be proposed, scheduled, and executed through governance proposals. CAUTION: It is not recommended to change the timelock while there are other queued governance proposals."
      },
      "version()": {
        "details": "See {IGovernor-version}."
      }
    },
    "title": "DivaGovernor Contract",
    "version": 1
  },
  "userdoc": {
    "kind": "user",
    "methods": {
      "addDelayConfiguration(bytes4[],bytes4[],bytes4[])": {
        "notice": "This function is used to add a delay configuration for function signatures"
      },
      "addThresholdConfiguration(bytes4[],bytes4[],bytes4[])": {
        "notice": "This function is used to add threshold configuration to functions"
      },
      "getSuccessThreshold(uint256)": {
        "notice": "Returns the threshold type for a given function signature"
      },
      "updateDefaultDelay(uint256)": {
        "notice": "This function is used to update the default delay value"
      },
      "updateLongDelay(uint256)": {
        "notice": "This function is used to update the long delay value"
      },
      "updateShortDelay(uint256)": {
        "notice": "This function is used to update the short delay value"
      },
      "voteSucceeded(uint256)": {
        "notice": "Returns true if the proposal has succeeded"
      }
    },
    "notice": "DivaGovernor is an Open Zeppelin governor contract with customizations for the success thresholds and timelock controller aiming to securize the governance process while avoiding the need of roles and permissions. The main features are: - proposal threshold, anyone with a minimum amount of voting power can create a proposal. - voting delay, after the proposal is submitted on-chain, there is a waiting period where token holders can delegate their voting power. - voting period, after the voting delay, the proposal can be voted on-chain. - fraction quorum - a successful proposal is queued in the timelock controller. - a successful proposal can be executed after the timelock delay. A successful proposal can be enqueued by anyone. A successful proposal can be executed by anyone. Any potentially malicious proposal can be cancelled by governance with another proposal with reduced timelock waiting period.",
    "version": 1
  },
  "storageLayout": {
    "storage": [
      {
        "astId": 8955,
        "contract": "contracts/DivaGovernor.sol:DivaGovernor",
        "label": "_nameFallback",
        "offset": 0,
        "slot": "0",
        "type": "t_string_storage"
      },
      {
        "astId": 8957,
        "contract": "contracts/DivaGovernor.sol:DivaGovernor",
        "label": "_versionFallback",
        "offset": 0,
        "slot": "1",
        "type": "t_string_storage"
      },
      {
        "astId": 557,
        "contract": "contracts/DivaGovernor.sol:DivaGovernor",
        "label": "_name",
        "offset": 0,
        "slot": "2",
        "type": "t_string_storage"
      },
      {
        "astId": 563,
        "contract": "contracts/DivaGovernor.sol:DivaGovernor",
        "label": "_proposals",
        "offset": 0,
        "slot": "3",
        "type": "t_mapping(t_uint256,t_struct(ProposalCore)555_storage)"
      },
      {
        "astId": 566,
        "contract": "contracts/DivaGovernor.sol:DivaGovernor",
        "label": "_governanceCall",
        "offset": 0,
        "slot": "4",
        "type": "t_struct(Bytes32Deque)12199_storage"
      },
      {
        "astId": 3206,
        "contract": "contracts/DivaGovernor.sol:DivaGovernor",
        "label": "_votingDelay",
        "offset": 0,
        "slot": "6",
        "type": "t_uint256"
      },
      {
        "astId": 3208,
        "contract": "contracts/DivaGovernor.sol:DivaGovernor",
        "label": "_votingPeriod",
        "offset": 0,
        "slot": "7",
        "type": "t_uint256"
      },
      {
        "astId": 3210,
        "contract": "contracts/DivaGovernor.sol:DivaGovernor",
        "label": "_proposalThreshold",
        "offset": 0,
        "slot": "8",
        "type": "t_uint256"
      },
      {
        "astId": 3487,
        "contract": "contracts/DivaGovernor.sol:DivaGovernor",
        "label": "_quorumNumerator",
        "offset": 0,
        "slot": "9",
        "type": "t_uint256"
      },
      {
        "astId": 3491,
        "contract": "contracts/DivaGovernor.sol:DivaGovernor",
        "label": "_quorumNumeratorHistory",
        "offset": 0,
        "slot": "10",
        "type": "t_struct(Trace224)6905_storage"
      },
      {
        "astId": 13860,
        "contract": "contracts/DivaGovernor.sol:DivaGovernor",
        "label": "_timelock",
        "offset": 0,
        "slot": "11",
        "type": "t_contract(DivaTimelockController)12941"
      },
      {
        "astId": 13864,
        "contract": "contracts/DivaGovernor.sol:DivaGovernor",
        "label": "_timelockIds",
        "offset": 0,
        "slot": "12",
        "type": "t_mapping(t_uint256,t_bytes32)"
      },
      {
        "astId": 13869,
        "contract": "contracts/DivaGovernor.sol:DivaGovernor",
        "label": "_functionsDelays",
        "offset": 0,
        "slot": "13",
        "type": "t_mapping(t_bytes4,t_enum(DelayType)13893)"
      },
      {
        "astId": 13871,
        "contract": "contracts/DivaGovernor.sol:DivaGovernor",
        "label": "_defaultDelay",
        "offset": 0,
        "slot": "14",
        "type": "t_uint256"
      },
      {
        "astId": 13873,
        "contract": "contracts/DivaGovernor.sol:DivaGovernor",
        "label": "_shortDelay",
        "offset": 0,
        "slot": "15",
        "type": "t_uint256"
      },
      {
        "astId": 13875,
        "contract": "contracts/DivaGovernor.sol:DivaGovernor",
        "label": "_longDelay",
        "offset": 0,
        "slot": "16",
        "type": "t_uint256"
      },
      {
        "astId": 13324,
        "contract": "contracts/DivaGovernor.sol:DivaGovernor",
        "label": "_proposalVotes",
        "offset": 0,
        "slot": "17",
        "type": "t_mapping(t_uint256,t_struct(ProposalVote)13311_storage)"
      },
      {
        "astId": 13330,
        "contract": "contracts/DivaGovernor.sol:DivaGovernor",
        "label": "_targetFunctionThreshold",
        "offset": 0,
        "slot": "18",
        "type": "t_mapping(t_bytes4,t_enum(ThresholdType)13297)"
      }
    ],
    "types": {
      "t_address": {
        "encoding": "inplace",
        "label": "address",
        "numberOfBytes": "20"
      },
      "t_array(t_struct(Checkpoint224)6910_storage)dyn_storage": {
        "base": "t_struct(Checkpoint224)6910_storage",
        "encoding": "dynamic_array",
        "label": "struct Checkpoints.Checkpoint224[]",
        "numberOfBytes": "32"
      },
      "t_bool": {
        "encoding": "inplace",
        "label": "bool",
        "numberOfBytes": "1"
      },
      "t_bytes24": {
        "encoding": "inplace",
        "label": "bytes24",
        "numberOfBytes": "24"
      },
      "t_bytes32": {
        "encoding": "inplace",
        "label": "bytes32",
        "numberOfBytes": "32"
      },
      "t_bytes4": {
        "encoding": "inplace",
        "label": "bytes4",
        "numberOfBytes": "4"
      },
      "t_contract(DivaTimelockController)12941": {
        "encoding": "inplace",
        "label": "contract DivaTimelockController",
        "numberOfBytes": "20"
      },
      "t_enum(DelayType)13893": {
        "encoding": "inplace",
        "label": "enum GovernorTimelockControlConfigurable.DelayType",
        "numberOfBytes": "1"
      },
      "t_enum(ThresholdType)13297": {
        "encoding": "inplace",
        "label": "enum GovernorCountingThresholds.ThresholdType",
        "numberOfBytes": "1"
      },
      "t_int128": {
        "encoding": "inplace",
        "label": "int128",
        "numberOfBytes": "16"
      },
      "t_mapping(t_address,t_bool)": {
        "encoding": "mapping",
        "key": "t_address",
        "label": "mapping(address => bool)",
        "numberOfBytes": "32",
        "value": "t_bool"
      },
      "t_mapping(t_bytes4,t_enum(DelayType)13893)": {
        "encoding": "mapping",
        "key": "t_bytes4",
        "label": "mapping(bytes4 => enum GovernorTimelockControlConfigurable.DelayType)",
        "numberOfBytes": "32",
        "value": "t_enum(DelayType)13893"
      },
      "t_mapping(t_bytes4,t_enum(ThresholdType)13297)": {
        "encoding": "mapping",
        "key": "t_bytes4",
        "label": "mapping(bytes4 => enum GovernorCountingThresholds.ThresholdType)",
        "numberOfBytes": "32",
        "value": "t_enum(ThresholdType)13297"
      },
      "t_mapping(t_int128,t_bytes32)": {
        "encoding": "mapping",
        "key": "t_int128",
        "label": "mapping(int128 => bytes32)",
        "numberOfBytes": "32",
        "value": "t_bytes32"
      },
      "t_mapping(t_uint256,t_bytes32)": {
        "encoding": "mapping",
        "key": "t_uint256",
        "label": "mapping(uint256 => bytes32)",
        "numberOfBytes": "32",
        "value": "t_bytes32"
      },
      "t_mapping(t_uint256,t_struct(ProposalCore)555_storage)": {
        "encoding": "mapping",
        "key": "t_uint256",
        "label": "mapping(uint256 => struct Governor.ProposalCore)",
        "numberOfBytes": "32",
        "value": "t_struct(ProposalCore)555_storage"
      },
      "t_mapping(t_uint256,t_struct(ProposalVote)13311_storage)": {
        "encoding": "mapping",
        "key": "t_uint256",
        "label": "mapping(uint256 => struct GovernorCountingThresholds.ProposalVote)",
        "numberOfBytes": "32",
        "value": "t_struct(ProposalVote)13311_storage"
      },
      "t_string_storage": {
        "encoding": "bytes",
        "label": "string",
        "numberOfBytes": "32"
      },
      "t_struct(Bytes32Deque)12199_storage": {
        "encoding": "inplace",
        "label": "struct DoubleEndedQueue.Bytes32Deque",
        "members": [
          {
            "astId": 12192,
            "contract": "contracts/DivaGovernor.sol:DivaGovernor",
            "label": "_begin",
            "offset": 0,
            "slot": "0",
            "type": "t_int128"
          },
          {
            "astId": 12194,
            "contract": "contracts/DivaGovernor.sol:DivaGovernor",
            "label": "_end",
            "offset": 16,
            "slot": "0",
            "type": "t_int128"
          },
          {
            "astId": 12198,
            "contract": "contracts/DivaGovernor.sol:DivaGovernor",
            "label": "_data",
            "offset": 0,
            "slot": "1",
            "type": "t_mapping(t_int128,t_bytes32)"
          }
        ],
        "numberOfBytes": "64"
      },
      "t_struct(Checkpoint224)6910_storage": {
        "encoding": "inplace",
        "label": "struct Checkpoints.Checkpoint224",
        "members": [
          {
            "astId": 6907,
            "contract": "contracts/DivaGovernor.sol:DivaGovernor",
            "label": "_key",
            "offset": 0,
            "slot": "0",
            "type": "t_uint32"
          },
          {
            "astId": 6909,
            "contract": "contracts/DivaGovernor.sol:DivaGovernor",
            "label": "_value",
            "offset": 4,
            "slot": "0",
            "type": "t_uint224"
          }
        ],
        "numberOfBytes": "32"
      },
      "t_struct(ProposalCore)555_storage": {
        "encoding": "inplace",
        "label": "struct Governor.ProposalCore",
        "members": [
          {
            "astId": 542,
            "contract": "contracts/DivaGovernor.sol:DivaGovernor",
            "label": "voteStart",
            "offset": 0,
            "slot": "0",
            "type": "t_uint64"
          },
          {
            "astId": 544,
            "contract": "contracts/DivaGovernor.sol:DivaGovernor",
            "label": "proposer",
            "offset": 8,
            "slot": "0",
            "type": "t_address"
          },
          {
            "astId": 546,
            "contract": "contracts/DivaGovernor.sol:DivaGovernor",
            "label": "__gap_unused0",
            "offset": 28,
            "slot": "0",
            "type": "t_bytes4"
          },
          {
            "astId": 548,
            "contract": "contracts/DivaGovernor.sol:DivaGovernor",
            "label": "voteEnd",
            "offset": 0,
            "slot": "1",
            "type": "t_uint64"
          },
          {
            "astId": 550,
            "contract": "contracts/DivaGovernor.sol:DivaGovernor",
            "label": "__gap_unused1",
            "offset": 8,
            "slot": "1",
            "type": "t_bytes24"
          },
          {
            "astId": 552,
            "contract": "contracts/DivaGovernor.sol:DivaGovernor",
            "label": "executed",
            "offset": 0,
            "slot": "2",
            "type": "t_bool"
          },
          {
            "astId": 554,
            "contract": "contracts/DivaGovernor.sol:DivaGovernor",
            "label": "canceled",
            "offset": 1,
            "slot": "2",
            "type": "t_bool"
          }
        ],
        "numberOfBytes": "96"
      },
      "t_struct(ProposalVote)13311_storage": {
        "encoding": "inplace",
        "label": "struct GovernorCountingThresholds.ProposalVote",
        "members": [
          {
            "astId": 13299,
            "contract": "contracts/DivaGovernor.sol:DivaGovernor",
            "label": "againstVotes",
            "offset": 0,
            "slot": "0",
            "type": "t_uint256"
          },
          {
            "astId": 13301,
            "contract": "contracts/DivaGovernor.sol:DivaGovernor",
            "label": "forVotes",
            "offset": 0,
            "slot": "1",
            "type": "t_uint256"
          },
          {
            "astId": 13303,
            "contract": "contracts/DivaGovernor.sol:DivaGovernor",
            "label": "abstainVotes",
            "offset": 0,
            "slot": "2",
            "type": "t_uint256"
          },
          {
            "astId": 13307,
            "contract": "contracts/DivaGovernor.sol:DivaGovernor",
            "label": "hasVoted",
            "offset": 0,
            "slot": "3",
            "type": "t_mapping(t_address,t_bool)"
          },
          {
            "astId": 13310,
            "contract": "contracts/DivaGovernor.sol:DivaGovernor",
            "label": "successThreshold",
            "offset": 0,
            "slot": "4",
            "type": "t_enum(ThresholdType)13297"
          }
        ],
        "numberOfBytes": "160"
      },
      "t_struct(Trace224)6905_storage": {
        "encoding": "inplace",
        "label": "struct Checkpoints.Trace224",
        "members": [
          {
            "astId": 6904,
            "contract": "contracts/DivaGovernor.sol:DivaGovernor",
            "label": "_checkpoints",
            "offset": 0,
            "slot": "0",
            "type": "t_array(t_struct(Checkpoint224)6910_storage)dyn_storage"
          }
        ],
        "numberOfBytes": "32"
      },
      "t_uint224": {
        "encoding": "inplace",
        "label": "uint224",
        "numberOfBytes": "28"
      },
      "t_uint256": {
        "encoding": "inplace",
        "label": "uint256",
        "numberOfBytes": "32"
      },
      "t_uint32": {
        "encoding": "inplace",
        "label": "uint32",
        "numberOfBytes": "4"
      },
      "t_uint64": {
        "encoding": "inplace",
        "label": "uint64",
        "numberOfBytes": "8"
      }
    }
  }
}